:100000000C940B030C9428030C9428030C942803E1
:100010000C94A60C0C94CF0C0C94F80C0C94210DA1
:100020000C9428030C94870B0C94B00B0C94D90BF4
:100030000C94540C0C94020C0C942B0C0C947D0C12
:100040000C940C0B0C94350B0C945E0B0C94280345
:100050000C9428030C9428030C9428030C94280374
:100060000C9428030C9428030C9428030C94280364
:100070000C9428030C9428030C942803076342363D
:10008000B79BD8A71A39685618AEBAAB558C1D3C29
:10009000B7CC5763BD6DEDFD753EF6177231BF00ED
:1000A0000000803F08000000BE922449123EABAA27
:1000B000AA2ABECDCCCC4C3E00000080BEABAAAA82
:1000C000AA3E00000000BF000000803F00000000CA
:1000D00000084178D3BB4387D1133D190E3CC3BD03
:1000E0004282AD2B3E68EC8276BED98FE1A93E4CB0
:1000F00080EFFFBE01C4FF7F3F00000000006E6183
:100100006E00696E660000407A10F35A00A0724ECD
:1001100018090010A5D4E80000E87648170000E4AC
:100120000B54020000CA9A3B000000E1F5050000F4
:1001300080969800000040420F000000A086010059
:100140000000102700000000E80300000000640029
:10015000000000000A000000000001000000000094
:100160002C76D888DC674F0823DFC1DFAE59E1B1B8
:10017000B796E5E3E453C63AE651997696E8E6C2C7
:100180008426EB898C9B62ED407C6FFCEFBC9C9FCE
:1001900040F2BAA56FA5F490055A2AF75C936B6CF0
:1001A000F9676DC11BFCE0E40D47FEF520E6B500E4
:1001B000D0ED902E0300943577050080841E080052
:1001C00000204E0A000000C80C333333330F986E02
:1001D00012831141EF8D2114893BE65516CFFEE6BF
:1001E000DB18D1844B381BF77C1D901DA4BBE42485
:1001F000203284725E228100C9F124ECA1E53D2702
:1002000016050100000000000000FA000000E000F8
:10021000E00028FE28FE282454FE5448C4C81026B6
:10022000466C92AA44A000A0C0000000384482009E
:10023000008244380028107C102810107C10100018
:100240000A0C000010101010100006060000040830
:100250001020407C8A92A27C0042FE020042868AE4
:1002600092628482A2D28C182848FE08E4A2A2A23C
:100270009C3C5292920C808E90A0C06C9292926C98
:100280006092929478006C6C0000006A6C00001020
:1002900028448200282828282800824428104080EA
:1002A0008A90604C929E827C7E8888887EFE9292A4
:1002B000926C7C82828244FE82824438FE929292C8
:1002C00082FE909090807C8292925EFE101010FED2
:1002D0000082FE8200040282FC80FE10284482FE1E
:1002E00002020202FE403040FEFE201008FE7C8228
:1002F00082827CFE909090607C828A847AFE9098C4
:100300009462629292928C8080FE8080FC02020253
:10031000FCF8040204F8FC021C02FCC6281028C6E3
:10032000E0100E10E0868A92A2C200FE8282004097
:1003300020100804008282FE00204080402002023B
:100340000202020080402000042A2A2A1EFE1222F5
:10035000221C1C222222041C222212FE1C2A2A2ACF
:1003600018107E908040304A4A4A7CFE1020201EA1
:100370000022BE0200040222BC00FE08142200007B
:1003800082FE02003E2018201E3E1020201E1C224D
:1003900022221C3E28282810102828183E3E102013
:1003A0002010122A2A2A0420FC2202043C02020401
:1003B0003E38040204383C020C023C221408142289
:1003C000300A0A0A3C22262A322200106C820000DF
:1003D00000FE000000826C100008101008100000E1
:1003E0000000007F8181817F7F8383837F7F878778
:1003F000877F7F8F8F8F7F7F9F9F9F7F7FBFBFBFB5
:100400007F7FFFFFFF7F2040FF40206215171565AB
:1004100000FBFB00000000000000C0FF0300E0FF45
:100420000700F0FF0F00F8FF1F0078001E007800A3
:100430001E0078001E0078001E0078001E00780064
:100440001E0078001E0078001E0078001E000000CC
:1004500000000000000080FF0300E0FF0700F0FF45
:100460000F00F8FF1F00F83C1F00783C1E00783C8E
:100470001E00783C1E00783C1E00783C1E00783C34
:100480001E00783C1E00783C1E00783C1E00783C24
:100490001E000000000000000000E0FF0300F0FF6D
:1004A0000700F8FF0F00F8FF1F00783C1E00783CA3
:1004B0001E00783C1E00783C1E00783C1E00783CF4
:1004C0001E00783C1E00783C1E00783C1E00783CE4
:1004D0001E000000000000000000F8FF0300F8FF0D
:1004E0000F00F8FF1F00F8FF1F0000001E000000B3
:1004F0001E0000801F0000F01F0000FF0F00E0FF43
:100500000700F0FF0000F80F0000F800000078007E
:10051000000078000000F8FF1F00F8FF1F00F0FF48
:100520001F00E0FF1F000000000000000000F8FFB7
:100530001F00F8FF1F00F8FF1F00F8FF1F007800E2
:100540001E00783C1E00783C1E00783C1E00783C63
:100550001E00783C1E00783C1E00F87E1F00F8FF4D
:100560001F00F0FF0F00E0E70300000000000000A4
:100570003800EEFF6C002A8045003A0047FC03FF7C
:100580006CFC83FF3900DEFF0B7CD0810BFCD0813B
:100590000BC0D0810BFCD0810B7CDEFF0B0082FFF7
:1005A000397002FF6CF83A0047DC2A8045CCEEFF38
:1005B0006CCC000038000000000C00001E0C000095
:1005C0001E0000001E0000001E0000001E00F8FFBC
:1005D0001F00F8FF1F00F8FF1F00F8FF1F000000BA
:1005E0001E0000001E0000001E0000001E00000093
:1005F0005E000000400000007C00000040000000A1
:10060000400000007C0000003000000010000000EE
:10061000300000007C0011241FBECFEFD8E0DEBF09
:10062000CDBF11E0A0E0B1E0ECEBF1E402C0059039
:100630000D92A632B107D9F722E0A6E2B1E001C0DF
:100640001D92AE31B207E1F70E942A030C94DC2020
:100650000C9400000E940A0B0E94FC0A0E94D9150B
:1006600080E090E008950F931F9385E00E94380981
:100670008823C1F080E460E00E94300400E0802F15
:1006800060E00E94DB0310E080E061E00E94300443
:100690001F5F1038C9F70F5F043089F783E060E00F
:1006A0000E941E041F910F9108950F931F9385E0E0
:1006B0000E942B09882311F082E07AC00E944D0429
:1006C000182F0E94C3091150123008F06DC08150DC
:1006D000823008F069C00E944B048EEA60E00E94FC
:1006E000300482EA60E00E94300480EA60E00E9408
:1006F000300400E513ECC8010197F1F780EC60E0ED
:100700000E9430048FE260E00E94300481E860E0E3
:100710000E94300486E160E00E94300482E260E0E2
:100720000E943004C8010197F1F78FEA60E00E944F
:10073000300486EA60E00E94300485EA60E00E94AE
:10074000300480E090E028E833E1F9013197F1F7D7
:10075000019643E0883E9407C1F783EB60E00E9476
:10076000300480E460E00E94300483E060E00E9496
:10077000DB0383E060E00E941E041092B601109239
:10078000B8011092B70186E091E090931B0280932C
:100790001A0288E10E94FD030E94330384EA60E0AC
:1007A0000E94300481E004C085E00E941B0987E0BC
:1007B0001F910F910895FF920F931F93082FF62E0C
:1007C00085E00E9438098823A1F01F2D1F77037050
:1007D000802F806B60E00E94300412951F70812F83
:1007E000806160E00E9430048F2D8F7060E00E9475
:1007F00030041F910F91FF9008951F93182F85E0EB
:100800000E9438098823C1F087E00E948F0482E0AB
:100810006AE00E94E00482E061EB0E94E004612F44
:10082000113208F060E282E00E94E00489EE8A95CD
:10083000F1F787E00E948F041F9108950F931F9393
:10084000082F162F85E00E943809882331F00370A5
:100850001F771093B4010093B5011F910F91089574
:100860000F931F93082F162F85E00E9438098823C5
:1008700079F0112319F0113021F402C02B9801C036
:100880002B9A86E08A95F1F780E0602F0E94E004C1
:100890001F910F910895239A089582E00E942B09D9
:1008A000882311F082E008950E94EF0480E06EE753
:1008B0007EE00E94860481E066E77EE00E94860476
:1008C00082E06EE67EE00E94860486E066E87EE0D6
:1008D0000E94860483E066E67EE00E94860484E04F
:1008E00066E67EE00E94860485E066E67EE00E9481
:1008F000860487E066E67EE00E9486048FEF8093A0
:10090000B90187E00E948F0481E00895E82FF0E0AC
:10091000EE0FFF1FE858FE4F7183608308951F9309
:10092000182F82E00E943809882309F447C0912FCC
:1009300097708091B901981709F440C09093B9015C
:1009400085B1887F892B85B9933011F1943028F4D3
:10095000913051F0923090F40CC0953019F19530EF
:10096000E0F0963021F50FC0E0917A01F0917B0123
:1009700022C0E0917801F09179011DC0E0917C01E5
:10098000F0917D0118C0E0918401F091850113C0C0
:10099000E0917E01F0917F010EC0E0918001F09125
:1009A000810109C0E0918201F091830104C0E091CE
:1009B0008601F0918701309709F009951F910895FC
:1009C0001F93162F0E948F0482E00E94380988230B
:1009D00021F01EBD0DB407FEFDCF1F910895259A8D
:1009E0002698279A209A219A229A08952F923F9228
:1009F0004F925F926F927F928F929F92AF92BF922F
:100A0000CF92DF92EF92FF920F931F93DF93CF93DA
:100A10000F92CDB7DEB7582E962E442E3901C982DB
:100A20001501CE88DF88A88CB98C6A8D7B8D81E01A
:100A3000981619F1981628F092E0991609F070C0EE
:100A40003EC080E0B7010E94E60680E0642DA3016D
:100A500098010981EE24E39471EFC72E71E0D72E3F
:100A60000E94A607552009F05BC000D00F92EDB799
:100A7000FEB71182338222821CC081E00E94E6060A
:100A800081E0682DA60195010C8DEE24E39491EF91
:100A9000C92E91E0D92E0E94A607552009F040C02A
:100AA00000D00F92EDB7FEB791828D8D9E8D93830E
:100AB00082830E94BE080F900F900F9031C0C70133
:100AC0000E94080700D081EF91E0EDB7FEB7928356
:100AD0008183842DB301A8012981082D7601650148
:100AE000AC8C882483940E9439080F900F90552075
:100AF000B9F400D000D00F92ADB7BEB71196EDB7E4
:100B0000FEB79182FD01328221828D8D9E8D94836C
:100B100083830E94BE080F900F900F900F900F904C
:100B20000F90CF91DF911F910F91FF90EF90DF9089
:100B3000CF90BF90AF909F908F907F906F905F907D
:100B40004F903F902F9008954F925F927F928F9297
:100B50009F92AF92BF92CF92DF92EF92FF920F934C
:100B60001F93DF93CF93CDB7DEB7562F942E7C2CF7
:100B7000AA89BB89CC88DD886E897F89988D813070
:100B800009F445C0813030F1823009F066C051303F
:100B900071F0513020F0523009F05FC011C080E098
:100BA000B7010E94E60680E0692DA80106C081E039
:100BB0000E94E60681E0682DA6010E94B2064DC0A3
:100BC000C7010E940807892DB801482D96010E948F
:100BD000C90643C0EDB7FEB739970FB6F894FEBF0C
:100BE0000FBEEDBF4DB65EB60894411C511CB283DA
:100BF000A183F201D382C282758364839683898D37
:100C00009A8D9087878380E0652FC72C1CC0EDB735
:100C1000FEB739970FB6F894FEBF0FBEEDBFADB665
:100C2000BEB60894A11CB11CB283A183F501D38286
:100C3000C2827583648396831086178281E0652F54
:100C4000C72CAA24BB240E94F6048DB79EB7099630
:100C50000FB6F8949EBF0FBE8DBFCF91DF911F914D
:100C60000F91FF90EF90DF90CF90BF90AF909F904B
:100C70008F907F905F904F90089587E00E942B099E
:100C8000882311F082E008950E94110981E0809389
:100C9000F0011092BA011092BB011092BD011092A6
:100CA000BC011092BF011092BE011092C1011092BE
:100CB000C0011092C3011092C2011092C50110929E
:100CC000C4011092C7011092C6011092C90110927E
:100CD000C8011092CB011092CA011092CD0110925E
:100CE000CC011092CF011092CE011092D10110923E
:100CF000D0011092D3011092D2011092D80110921B
:100D0000D9011092DA011092DB011092DD011092EC
:100D1000DE011092DF011092E0011092E1011092C9
:100D2000E2011092E3011092E5011092E4011092A9
:100D3000E7011092E6011092E9011092E801109289
:100D4000EB011092EA011092D5011092D401109299
:100D5000D7011092D6011092EF011092EE0110927D
:100D6000F0010895EF92FF920F931F93182F062F13
:100D70007A0160E00E944507812F602F0E942607BC
:100D8000812FB7010E945A071F910F91FF90EF909A
:100D90000895CF92DF92EF92FF920F931F93C82E88
:100DA0007B01D42E890182E060E00E9445078C2DF2
:100DB0006D2D0E943B07C701B8010E9487071F9154
:100DC0000F91FF90EF90DF90CF900895482F81E032
:100DD0008093F001CB0123E0693E720710F088EEAA
:100DE00093E0413071F0413018F0423071F405C0A9
:100DF0009093C5018093C40108C09093C50180936E
:100E0000C4019093C7018093C6011092F001089528
:100E100021E02093F001AC0183E0493E580710F037
:100E200048EE53E09B0183E0693E780710F028EE1E
:100E300033E0F8945093C5014093C4013093C70147
:100E40002093C60178941092F0010895982F81E0C4
:100E50008093F001913051F0913018F0923041F4CC
:100E600003C06093DD0104C06093DD016093DE0187
:100E70001092F001089591E09093F001EDEDF1E012
:100E8000819360831092F0010895982F81E0809300
:100E9000F001913051F0913018F0923041F403C0DC
:100EA0006093BA0104C06093BA016093BB011092D1
:100EB000F0010895482F81E08093F001CB0121E0FB
:100EC0006139720710F080E991E0413061F0413002
:100ED00018F04230C9F40EC0F8949093BD0180938D
:100EE000BC01789411C0F8949093BF018093BE0127
:100EF00078940AC0F8949093BD018093BC019093BC
:100F0000BF018093BE0178941092F0010895AC0166
:100F100081E08093F001F894CB0121E06139720700
:100F200010F080E991E09093BF018093BE019A0197
:100F300081E04139580710F020E931E03093BD01DC
:100F40002093BC0178941092F00108958F929F92A3
:100F5000AF92BF92CF92DF92EF92FF920F931F93C7
:100F6000CF93DF93182FF62E4A015901E60187E04F
:100F70000E943809882309F46FC0812F61E00E9424
:100F80004507812FB401A5010E946010812F6F2DAC
:100F90000E942607812F602F0E944B10812FB401E1
:100FA0000E942310C114D10499F0113049F011307E
:100FB00018F0123069F406C018821092EC0108C0D3
:100FC000198204C0188219821092EC011092ED016E
:100FD000D093EF01C093EE01EE20B9F586E291E0E7
:100FE0009093EF018093EE01812FB5010E945A0783
:100FF000812F0E940E10113071F0113018F0123054
:1010000059F512C0109226011092EC018091260130
:101010008823E1F321C0109227011092ED01809105
:1010200027018823E1F318C01092260110922701AE
:101030001092EC011092ED01809126018823E1F3DA
:10104000809127018823C1F307C0812FB5010E9439
:101050005A07812F0E940E10DF91CF911F910F919F
:10106000FF90EF90DF90CF90BF90AF909F908F90C8
:1010700008953F924F925F926F927F928F929F92CC
:10108000AF92BF92CF92DF92EF92FF920F931F9396
:10109000DF93CF93CDB7DEB7982E2B013A01322ED6
:1010A000B02E0C891D8987E00E943809882309F435
:1010B00053C082E061E00E94450780E0B201A301D5
:1010C0000E94601081E0B701A6010E946010892D86
:1010D0006B2D0E943B0780E0632D0E944B1081E046
:1010E0006A2D0E944B10C201B7010E943E100115EB
:1010F000110539F0F801108211821092EC01109262
:10110000ED011093EF010093EE018820F1F488E2E5
:1011100091E09093EF018093EE01C301B6010E942C
:10112000870782E00E940E10109228011092290178
:101130001092EC011092ED01809128018823E1F3D7
:10114000809129018823C1F307C0C301B6010E9421
:10115000870782E00E940E10CF91DF911F910F91BF
:10116000FF90EF90DF90CF90BF90AF909F908F90C7
:101170007F906F905F904F903F900895CF92DF9255
:10118000EF92FF920F931F93DF93CF93CDB7DEB70C
:101190001B8587E00E9438098823D1F1113061F066
:1011A000113018F01230A1F511C0EC85FD85809149
:1011B000F1018823E1F306C0EC85FD858091F20101
:1011C0008823E1F3309721F1099522C0CC84DD8496
:1011D000EE84FF8400E010E0002351F48091F101DF
:1011E000882331F0C114D10411F0F601099501E012
:1011F000112351F48091F201882331F0E114F104BC
:1012000011F0F701099511E0002331F3112321F3C7
:10121000CF91DF911F910F91FF90EF90DF90CF90D2
:1012200008953A9A3B9A3C9A3D9A3E9A3F9A88B1E1
:10123000837088B90895853160F4E82FF0E0E156B5
:10124000FE4F8081882329F08081815080838081B6
:1012500008958FEF0895853110F080E00895E82F0C
:10126000F0E0E156FE4F80818F5F808381500895CA
:10127000853110F080E00895E82FF0E0E156FE4F50
:101280008081811181E008951F93CF93DF93182F00
:1012900080912B01882341F080913501882399F0BA
:1012A00010922B01109235010E94920980932A011D
:1012B0008FE291E061E040E022E330E00E94550AD5
:1012C00081E080932B0190912A01A12FB0E0ED01E4
:1012D000C050DF4F8881882369F0FD01ED5FFE4F2C
:1012E00080819823C1F0FD01E45DFE4F81E08083A1
:1012F000188211C0FD01E45DFE4F808181111082D2
:10130000FD01ED5FFE4F8081982329F4FD01E0503F
:10131000FF4F81E08083A45DBE4F8C91DF91CF9120
:101320001F9108950F931F9381E00E94380988232D
:1013300011F400E024C087E00E948F0482E06AE09C
:101340000E94E00482E062EB0E94E00418EC812F2E
:101350008A95F1F782E060E00E948F0E082F812FBE
:101360008A95F1F782E060E00E948F0E1A95F1F7FE
:1013700087E00E948F0488E893E10197F1F7802FBE
:101380001F910F910895DF93CF9300D00F92CDB7A7
:10139000DEB781E00E942B09882311F082E011C0A2
:1013A0000E944D048150823040F40E94E709CE0132
:1013B00001960E94B41081E004C081E00E941B09E4
:1013C00087E00F900F900F90CF91DF9108951092CA
:1013D00008021092070210920A021092090210925B
:1013E0000C0210920B0210920E0210920D0210923B
:1013F000100210920F0280E991E09093F401809323
:10140000F3019093F6018093F5019093F801809396
:10141000F7019093FA018093F9019093FC01809376
:10142000FB0184E398E09093FE018093FD0190938B
:1014300000028093FF019093020280930102909337
:10144000040280930302909306028093050208959C
:101450000F931F93DF93CF93CDB7DEB729970FB6C6
:10146000F894DEBF0FBECDBF8C0188E00E94380922
:10147000882311F491E00DC0CE01019661E040E0B7
:1014800098010E94550A982F882319F48F81882388
:10149000E9F3892F29960FB6F894DEBF0FBECDBFB2
:1014A000CF91DF911F910F910895EF92FF920F93CB
:1014B0001F93CF93DF93EC01F62EE42E890188E091
:1014C0000E943809882311F481E026C084E090E06E
:1014D0000E94151EFC01009711F482E01DC0F982E4
:1014E000F0FC1E8281E0E81619F48981846089830A
:1014F0008981886089831B830A831D830C83D18340
:10150000C0831382128281E080939801CF010E94F0
:10151000930A1092980180E0DF91CF911F910F9173
:10152000FF90EF900895CF92DF92EF92FF920F938A
:101530001F93CF93DF93EC0180911102882339F43C
:10154000D0931302C09312020E940D1147C0C090A5
:101550001202D090130200E010E0EE24FF2437C006
:10156000A881B981FD0164817581F60140815181B5
:10157000FA01848195819B01281B390B37FF0FC02D
:10158000861B970B95838483DB82CA82012B29F407
:10159000D0931302C093120221C0F7010CC0F601D0
:1015A000828193812115310549F4FD011582148250
:1015B0009B838A83F601D383C28310C0FD013583E8
:1015C00024830097B9F30F5F1F4F76016C01809160
:1015D000110290E00817190718F2ECCF8091110260
:1015E0008F5F80931102DF91CF911F910F91FF9038
:1015F000EF90DF90CF9008950E949D100E94080EFA
:101600000E944A0D0E94F1100E944D040E94C309DD
:1016100078940895000008951F920F920FB60F92CC
:1016200011242F933F934F935F936F937F938F93E7
:101630009F93AF93BF93EF93FF93E0915801F09185
:101640005901309709F00995FF91EF91BF91AF9142
:101650009F918F917F916F915F914F913F912F91CA
:101660000F900FBE0F901F9018951F920F920FB6FC
:101670000F9211242F933F934F935F936F937F9318
:101680008F939F93AF93BF93EF93FF93E0915A0192
:10169000F0915B01309709F00995FF91EF91BF91AF
:1016A000AF919F918F917F916F915F914F913F91FA
:1016B0002F910F900FBE0F901F9018951F920F92B1
:1016C0000FB60F9211242F933F934F935F936F9315
:1016D0007F938F939F93AF93BF93EF93FF93E0918B
:1016E0005C01F0915D01309709F00995FF91EF9150
:1016F000BF91AF919F918F917F916F915F914F912A
:101700003F912F910F900FBE0F901F9018951F9231
:101710000F920FB60F9211242F933F934F935F9325
:101720006F937F938F939F93AF93BF93EF93FF93A9
:10173000E0914A01F0914B01309709F00995FF9132
:10174000EF91BF91AF919F918F917F916F915F9139
:101750004F913F912F910F900FBE0F901F901895B2
:101760001F920F920FB60F9211242F933F934F9316
:101770005F936F937F938F939F93AF93BF93EF93F9
:10178000FF93E0914C01F0914D01309709F00995DC
:10179000FF91EF91BF91AF919F918F917F916F9149
:1017A0005F914F913F912F910F900FBE0F901F901F
:1017B00018951F920F920FB60F9211242F933F93FB
:1017C0004F935F936F937F938F939F93AF93BF9349
:1017D000EF93FF93E0914E01F0914F01309709F0A4
:1017E0000995FF91EF91BF91AF919F918F917F915B
:1017F0006F915F914F913F912F910F900FBE0F907E
:101800001F9018951F920F920FB60F9211242F93CD
:101810003F934F935F936F937F938F939F93AF9378
:10182000BF93EF93FF93E0915201F09153013097F2
:1018300009F00995FF91EF91BF91AF919F918F9121
:101840007F916F915F914F913F912F910F900FBEBC
:101850000F901F9018951F920F920FB60F921124A0
:101860002F933F934F935F936F937F938F939F93A8
:10187000AF93BF93EF93FF93E0915401F091550123
:10188000309709F00995FF91EF91BF91AF919F912A
:101890008F917F916F915F914F913F912F910F9019
:1018A0000FBE0F901F9018951F920F920FB60F92B8
:1018B00011242F933F934F935F936F937F938F9355
:1018C0009F93AF93BF93EF93FF93E0915001F091FB
:1018D0005101309709F00995FF91EF91BF91AF91B8
:1018E0009F918F917F916F915F914F913F912F9138
:1018F0000F900FBE0F901F9018951F920F920FB66A
:101900000F9211242F933F934F935F936F937F9385
:101910008F939F93AF93BF93EF93FF93E091560103
:10192000F0915701309709F00995FF91EF91BF9120
:10193000AF919F918F917F916F915F914F913F9167
:101940002F910F900FBE0F901F9018951F920F921E
:101950000FB60F9211242F933F934F935F936F9382
:101960007F938F939F93AF93BF93EF93FF93E091F8
:101970004001F0914101309709F00995FF91EF91F5
:10198000BF91AF919F918F917F916F915F914F9197
:101990003F912F910F900FBE0F901F9018951F929F
:1019A0000F920FB60F9211242F933F934F935F9393
:1019B0006F937F938F939F93AF93BF93EF93FF9317
:1019C000E0914201F0914301309709F00995FF91B0
:1019D000EF91BF91AF919F918F917F916F915F91A7
:1019E0004F913F912F910F900FBE0F901F90189520
:1019F0001F920F920FB60F9211242F933F934F9384
:101A00005F936F937F938F939F93AF93BF93EF9366
:101A1000FF93E0914401F0914501309709F0099559
:101A2000FF91EF91BF91AF919F918F917F916F91B6
:101A30005F914F913F912F910F900FBE0F901F908C
:101A400018951F920F920FB60F9211242F933F9368
:101A50004F935F936F937F938F939F93AF93BF93B6
:101A6000EF93FF93E0914601F0914701309709F021
:101A70000995FF91EF91BF91AF919F918F917F91C8
:101A80006F915F914F913F912F910F900FBE0F90EB
:101A90001F90189580E10E942B09882311F082E0A5
:101AA0000895E8E3F1E01192119281E0E837F80738
:101AB000D1F781E00895FF920F931F93CF93DF93A7
:101AC000F82E8AE0F816B1F08F1548F0E8E0FE161F
:101AD000B9F1EF1538F1F7E0FF1651F43BC08DE096
:101AE000F81659F0EBE1FE1689F0FCE0FF1641F024
:101AF00001E041C01092B40103C01092B4013AC099
:101B00008091B50181508093B50134C00E943303A8
:101B100014C080E061E00E9430048091B4018F5FC6
:101B20008093B4018091B40187FFF3CF1092B40188
:101B30008091B50181508093B50100E011E01CC097
:101B40008091B4018823B1F08091B40186508093D4
:101B5000B40110C081E00E94600F64EF71E080E08A
:101B600090E04DE750E024E630E00E946C0F81E009
:101B70000E94C70E00E010E08091B5016091B401B1
:101B80000E94DB03002351F185E0F89EC00111247F
:101B9000EC01CD59DE4F8C0108591E4FFE01849196
:101BA00061E00E9430042196C017D107B9F780E0A8
:101BB00061E00E9430048091B4018A5F8093B40197
:101BC0008091B40190E08C3791053CF01092B40103
:101BD0008091B50181508093B50111E08091B501EC
:101BE00083708093B501113059F48091B601813032
:101BF00039F4E091B701F091B801309709F00995F7
:101C000080E090E0DF91CF911F910F91FF900895B8
:101C1000F8940E94630E81E00E94100E81E0089506
:101C2000813049F0F894813020F18230B1F0833076
:101C300009F045C017C02C9A80E88093610010928B
:101C4000610080E090E00000019688329105D9F7AC
:101C50001092680010926B00089580E880936100F4
:101C600083E004C080E88093610088E08093610095
:101C700028C080E090E0000001962DE680369207B3
:101C8000D1F72C9880E090E0000001962DE6803698
:101C90009207D1F710927A008FEF809364008091C1
:101CA000680081608093680080916B0084608093FD
:101CB0006B00789483B7816083BF889508958230E4
:101CC00008F078940895249A2C9A089583E58CBDA1
:101CD00081E08DBD8DE08A95F1F7089583E58CBD97
:101CE0001DBC84EF91E00197F1F708958FE78CBD5B
:101CF0001DBC84EF91E00197F1F7089583E58CBD59
:101D000081E08DBD8DE08A95F1F7089583E58CBD66
:101D100081E08DBD84EF91E00197F1F708951F9365
:101D2000162F0E948F0482E00E943809882329F030
:101D30001EBD0DB407FEFDCF8EB51F9108958AE03C
:101D40000E941B09882329F481E00E94C20F10928F
:101D50008901089589E00E941B098823B9F48091C4
:101D60008801882311F00E94081082E00E94C20FAF
:101D70008091960190919701009731F00E94AA1EE0
:101D80001092970110929601109288010895813067
:101D900029F0823029F40E94AA0E08950E949F0E15
:101DA00008950F931F93CF93DF9380E291E00E94F9
:101DB000151E9C019093970180939601892B11F435
:101DC00080E039C08901C0E0D0E0BE0180E090E051
:101DD0000E94681A20E030E040EA51E40E94F619BF
:101DE00027EF35E740E05FE30E94331B9B01AC0126
:101DF00060E070E080E291E40E94A01B9B01AC01D6
:101E0000CA01B9012DEC3CEC42E851E40E94331BBD
:101E10000E94F61A2AE030E040E050E00E94921D55
:101E2000F80161937193819391938F012196C83446
:101E3000D10559F681E0DF91CF911F910F9108955F
:101E40008AE00E942B09882311F082E00895109205
:101E500093011092920181E00E94DE0F81E0809355
:101E6000890108951F9389E00E942B09882311F0AE
:101E700082E024C08BE00E9438098823D9F40E94B4
:101E8000D10E182F813011F086E018C010928A010F
:101E900010928B0110928C0110928D018DE065E4FF
:101EA00071E10E94201182E00E94DE0F10938801F0
:101EB00081E004C089E00E941B0987E01F9108951A
:101EC000813021F0823029F084E008950E94200FB3
:101ED00008950E94320F08956F927F928F929F9281
:101EE000AF92BF92CF92DF92EF92FF920F931F9328
:101EF000CF93DF933B014C015A01E9018AE00E9434
:101F00003809882381F1209741F19501442737FD55
:101F10004095542FBE01C536D10510F064E670E03F
:101F200080E090E00E94921D24E630E040E050E026
:101F30000E94A21D79018A01C401B3010E944811C7
:101F4000C7010E94280A60E070E080E090E00E94F3
:101F50004811C5018E199F0904C0A114B10419F0DC
:101F6000C5010E94280ADF91CF911F910F91FF9028
:101F7000EF90DF90CF90BF90AF909F908F907F9029
:101F80006F900895823029F4809181008E7F809334
:101F9000810080918801813031F480918901813004
:101FA00011F40000089580918801813021F0809122
:101FB0008901813011F45F9857980895982F809186
:101FC0008801882331F480918901882311F4579A7C
:101FD0005F98809188018823D1F49230C1F41092E7
:101FE0008000109281008091810088608093810040
:101FF0008091810081608093810010928500109211
:10200000840081E08093890080E9809388000895AE
:10201000EFE6F0E080818D7F80830895982F81E046
:102020008093F001913051F0913018F0923041F4EA
:1020300003C01092D80104C01092D8011092D901A7
:102040001092F0010895982F81E08093F001913073
:1020500071F0913018F0923071F405C07093CD0199
:102060006093CC0108C07093CD016093CC01709354
:10207000CF016093CE011092F001089521E02093EA
:10208000F001ECECF1E09183808332967183608300
:102090001092F0010895982F81E08093F001913023
:1020A00051F0913018F0923041F403C06093DA019E
:1020B00004C06093DA016093DB011092F00108958F
:1020C0000F931F93CF93DF93EB018A01813001F1CE
:1020D000813018F0823061F50DC08091C40190917B
:1020E000C501892B11F080E01AC01092D101109225
:1020F000D0011EC08091C4019091C501892B21F0AF
:1021000080E00E94AD1104C01092D1011092D00164
:102110008091C6019091C701892B31F081E0BE0109
:10212000A8010E94AD1104C01092D3011092D201F7
:10213000DF91CF911F910F910895CF93DF93C0E06E
:10214000D0E08C2F60E00E94AC102196C531D10503
:10215000C1F7DF91CF910895853128F4E82FF0E0A1
:10216000E156FE4F608308951F93CF93DF93EC01F8
:10217000009799F181E00E943809882351F187E0A6
:102180000E948F0418EC812F8A95F1F782E06AE0B3
:102190000E94E00482E064EB0E94E004812F8A95B3
:1021A000F1F782E060E00E948F0E8883812F8A958C
:1021B000F1F782E060E00E948F0E89831A95F1F7B3
:1021C00082E060E00E948F0E8A8387E00E948F0485
:1021D00004C0188219828DE28A83DF91CF911F910A
:1021E000089588E00E942B09882311F082E0089569
:1021F0001092110210921302109212021092980182
:102200001092990180E16AE172E10E9434110E940A
:1022100011110E941A1181E0089581E080939901C3
:10222000089584B5826084BD85B5846085BD8EE4E3
:1022300087BD0895EEE6F0E0808182608083089596
:10224000E82F803268F48051833050F0F0E0EE0FD8
:10225000FF1FE85CFE4F208131817183608302C0E3
:1022600020E030E0C9010895803218F020E030E02D
:102270000AC0E82FF0E0EE0FFF1FE85CFE4F208160
:10228000318171836083C90108950E946C110895A2
:10229000EF92FF920F931F937B018C018AE00E94C3
:1022A00038098823A1F080918901882381F0D80121
:1022B000C701880F991FAA1FBB1F90939501809398
:1022C0009401E114F1040105110509F45F981F91CF
:1022D0000F91FF90EF90089580918A0190918B016A
:1022E000A0918C01B0918D0120918E0130918F01D0
:1022F0004091900150919101280F391F4A1F5B1F97
:1023000020938A0130938B0140938C0150938D016F
:1023100080918A0190918B01A0918C01B0918D01E7
:102320008851964FA040B040BCF08BB180588BB91B
:1023300080918A0190918B01A0918C01B0918D01C7
:102340008851964FA040B04080938A0190938B01B2
:10235000A0938C01B0938D010895EF92FF920F939B
:102360001F93CF93DF93EB01882321F0813009F095
:102370005AC02DC09A0140E050E0CA01B9010E9444
:10238000921D2091C4013091C501220F331F40E0FE
:1023900050E00E94A21D79018A01A8019701220F35
:1023A000331F441F551FCE01A0E0B0E082179307F2
:1023B000A407B50728F0F092D101E092D00133C014
:1023C000D695C795D093D101C093D0012CC09A0166
:1023D00040E050E0CA01B9010E94921D2091C6015F
:1023E0003091C701220F331F40E050E00E94A21D30
:1023F00079018A01A8019701220F331F441F551F3D
:10240000CE01A0E0B0E082179307A407B50728F03B
:10241000F092D301E092D20106C0D695C795D09331
:10242000D301C093D201DF91CF911F910F91FF9003
:10243000EF9008950E9421120E9461120E943A12A8
:10244000089588E00E943809882311F484E00895F3
:1024500080919901882311F483E008958091980177
:10246000882311F082E008950E94D3148130E1F3B3
:1024700080E0089580918901813011F58091920169
:10248000909193012091940130919501280F391F6B
:102490003093930120939201809192019091930146
:1024A000885E93406CF08BB180588BB9809192011B
:1024B00090919301885E9340909393018093920151
:1024C000089587E00E943809882309F4AAC0809102
:1024D000C4019091C501892B09F18091E801909187
:1024E000E9012091C4013091C501820F931F90939F
:1024F000E9018093E8018091E8019091E901885E0B
:102500009340A4F08091E8019091E901885E9340A6
:102510009093E9018093E80141E009C08091BC01FA
:102520009091BD019093C1018093C00140E08091E2
:10253000C6019091C701892B09F18091EA01909120
:10254000EB012091C6013091C701820F931F909338
:10255000EB018093EA018091EA019091EB01885EA2
:102560009340A4F08091EA019091EB01885E934042
:102570009093EB018093EA0161E009C08091BE0174
:102580009091BF019093C3018093C20160E0842FBA
:102590000E9412138091E4019091E5012091C00105
:1025A0003091C101280F391F3093E5012093E401D8
:1025B0008091E4019091E501885E934014F440E03D
:1025C0000BC08091E4019091E501885E9340909367
:1025D000E5018093E40141E08091E6019091E701FB
:1025E0002091C2013091C301280F391F3093E701B8
:1025F0002093E6018091E6019091E701885E934087
:1026000014F460E00BC08091E6019091E701885ED0
:1026100093409093E7018093E60161E0842F0E944C
:10262000571308958823F1F02091BC013091BD012A
:102630008091C0019091C101281B390B121613061D
:1026400034F48091C0019091C101019607C0232B01
:1026500049F08091C0019091C10101979093C1010F
:102660008093C001662311F12091BE013091BF011A
:102670008091C2019091C301281B390B12161306D9
:1026800054F48091C2019091C30101969093C301CB
:102690008093C2010895232B49F08091C20190914B
:1026A000C30101979093C3018093C20108950F93D2
:1026B0001F93182F062F8091F001882309F0E7C09F
:1026C0008091D801882309F05AC08091C00190916F
:1026D000C101892BE9F480919A01837E80939A014C
:1026E0001092E1018091EC01882309F45DC06091B2
:1026F000DA0180E00E94AE14E091EE01F091EF016A
:10270000309709F451C081E080831092EC014CC0F5
:102710008091BA01813041F48091CC019091CD013A
:10272000019711F411E002C01123F1F1E091DF01F2
:10273000F0E0EC5EFE4F90919A01937E8081892BB0
:1027400080939A018091DD01882321F48091DF013B
:102750008F5F03C08091DF0181508093DF01809102
:10276000DF0183708093DF0181E08093E10180913C
:10277000BA018130C9F480E00E945A1415C09091CA
:102780009A01937E90939A01E091DF01F0E0EC5E74
:10279000FE4F8081892B80939A0182E08093E10132
:1027A0001092C1011092C0018091D901882309F0D3
:1027B00059C08091C2019091C301892BE9F48091A5
:1027C0009A018F7180939A011092E2018091ED013C
:1027D000882309F45CC06091DB0181E00E94AE14A3
:1027E000E091EE01F091EF01309709F450C081E0E3
:1027F00081831092ED014BC08091BB01813041F487
:102800008091CE019091CF01019711F401E002C0B7
:102810000023E9F1E091E001F0E0E85EFE4F9091E5
:102820009A019F718081892B80939A018091DE01AA
:10283000882321F48091E0018F5F03C08091E00143
:1028400081508093E0018091E00183708093E001EA
:1028500081E08093E2018091BB018130C1F40E944C
:102860005A1415C090919A019F7190939A01E0912A
:10287000E001F0E0E85EFE4F8081892B80939A01B1
:1028800082E08093E2011092C3011092C201809114
:10289000E301882331F48AE991E0612F402F0E94FF
:1028A000411588B1837090919A01892B88B91F9145
:1028B0000F910895882321F0813009F04EC027C080
:1028C0008091CC019091CD01892B49F08091CC0170
:1028D0009091CD0101979093CD018093CC0180918F
:1028E000EC018823D1F52091CC013091CD0180916C
:1028F000D0019091D1012817390779F580E060E087
:1029000070E00E945A0781E08093EC010895809165
:10291000CE019091CF01892B49F08091CE01909109
:10292000CF0101979093CF018093CE018091ED016B
:10293000882399F42091CE013091CF018091D2016A
:102940009091D3012817390741F481E060E070E0ED
:102950000E945A0781E08093ED0108950F931F9321
:10296000182F062F662349F460E070E00E945A0792
:10297000812F60E070E00E94231081E08093F001DD
:10298000113051F0113018F0123041F403C00093AF
:10299000D80104C00093D8010093D9011092F0012E
:1029A0001F910F910895FF920F931F93CF93DF9381
:1029B00080911102882309F459C0009112021091EC
:1029C0001302F801C081D1818C819D8101979D8383
:1029D0008C83181619060CF449C0898180FF05C044
:1029E0008E81882311F481E08E83898181FF03C069
:1029F000EF81F8850995809111028230A8F0F801E5
:102A00008281938190931302809312021382128227
:102A1000E0910000F091010084819581181619065B
:102A20003CF0FF24F39405C010921302109212029E
:102A3000FF24809111028150809311028091110234
:102A4000882311F40E943E15898182FF08C08A8183
:102A50009B819D838C83C8010E94930A08C0C80192
:102A60000E94AA1E89818F7E898301C0FF248F2D39
:102A7000DF91CF911F910F91FF90089510929901CE
:102A80000895FC018091E101823069F480919E01FA
:102A900091E0892780939E01882309F03EC08081C0
:102AA000837E80833AC08091C0019091C101C39719
:102AB000A4F56623D1F02091C0013091C10180E6D8
:102AC00090E0BC01269FC001279F900D369F900D7E
:102AD0001124880F892F881F990B9093D50180931B
:102AE000D40181E080939C0118C080919C018823CF
:102AF000A1F08091D4019091D50101979093D501D7
:102B00008093D4018091D4019091D501892B29F42F
:102B10008081837E808310929C018091E2018230CB
:102B200069F480919D0191E0892780939D0188231C
:102B300009F03EC080818F71808308958091C20129
:102B40009091C301C397A4F54423D1F02091C20111
:102B50003091C30180E690E0AC01249FC001259F25
:102B6000900D349F900D1124880F892F881F990B89
:102B70009093D7018093D60181E080939B010895C3
:102B800080919B018823A1F08091D6019091D7017B
:102B900001979093D7018093D6018091D6019091AF
:102BA000D701892B29F480818F71808310929B013A
:102BB00008950E9455030E9433030E94C3090E9496
:102BC0003D06C2E2D1E00F2EF0E97F2EF02D0F2E50
:102BD000F8EC9F2EF02D0F2EF6E9DF2EF02D84E677
:102BE00090E00E94280A0E9492091F928F93DF931F
:102BF000CF930E94682081E00E9444090F900F90BB
:102C00000F900F90813059F784EF91E00E94280ACD
:102C10006AC01F921F921F9281E08F937F921F9232
:102C20009F921F92DF92812CA12CB12CC12C0F2ED0
:102C3000F0E9EF2EFF24F394F02D08EC10E026E9E4
:102C400030E040E062E080E00E94A4050E9492092A
:102C5000082F10E01F928F93DF93CF930E9468207C
:102C6000C80101972DB73EB7235F3F4F0FB6F894C9
:102C70003EBF0FBE2DBF0397B0F51F930F93DF9399
:102C8000CF930E9468201F921F921F926624639424
:102C90006F927F921F929F921F92DF92882483945B
:102CA00008EC10E026E930E041E062E080E00E94BC
:102CB000A4051F921F921F926F927F921F929F9264
:102CC0001F92DF92812C26E930E041E062E080E053
:102CD0000E94A4052DB73EB72A5E3F4F0FB6F89469
:102CE0003EBF0FBE2DBF81E00E944409882309F436
:102CF00090CF75CFA3E1B0E0E0E8F6E10C94CF1DF2
:102D00006C014B012A01FC0117821682838181FF2D
:102D100043C3AE014F5F5F4F3A01F6019381F40167
:102D200093FD859193FF81914F01882309F430C36E
:102D3000853239F493FD859193FF81914F0185325E
:102D400039F4B60190E00E94302052012501E5CF10
:102D500010E0F12C20E02032A0F48B3269F030F446
:102D6000803259F0833269F420612CC08D3239F001
:102D7000803339F4216026C02260246023C028609B
:102D800021C027FD27C030ED380F3A3078F426FFF8
:102D900006C0FAE01F9F300D1124132F13C04AE024
:102DA000F49E300D1124F32E20620CC08E3221F4DB
:102DB00026FDEEC2206406C08C3611F4206802C0E5
:102DC000883641F4F40193FD859193FF81914F0181
:102DD0008111C1CF9BEB980F933018F42061805E76
:102DE00006C09BE9980F933008F071C12F7E26FF33
:102DF00016E02F73322E853619F42064322E08C067
:102E0000863621F4F22FF0683F2E02C011111150C6
:102E100037FE07C01C3350F4EE24E394E10E27E0A4
:102E20000BC0183038F027E017E005C027E04CE36E
:102E3000E42E02C0212FE12C520144E0A40EB11C6B
:102E4000F20160817181828193810E2DA3010E9424
:102E5000421F2C01098100FF02C003FF07C031FCA3
:102E600008C032FE09C030E2232E07C02DE2222E18
:102E700004C09BE2292E01C0212C802F8C7019F0F8
:102E8000211068C2A8C237FE0FC0E40C04FF04C0C2
:102E90008A81813309F4EA941E1474F5F8E0FE1572
:102EA00078F588E0E82E2CC036FC2AC0812F90E00F
:102EB000841595059CF02CEF42162FEF520674F006
:102EC000432D4068342E0AC0E2E0F0E0EC0FFD1F15
:102ED000E10FF11D8081803319F411501111F4CFED
:102EE00037FE0EC0EE24E394E10E812F90E04816E9
:102EF00059062CF4141904C0EE24E39401C010E028
:102F000037FE06C01414150434F4C201019605C03E
:102F100085E090E002C081E090E02110019611234D
:102F200031F0212F30E02F5F3F4F820F931F2F2D65
:102F300030E08217930714F4F81A01C0F12C832DA6
:102F4000897049F4FF2039F0B60180E290E00E94D8
:102F50003020FA94F7CF222029F0B601822D90E09C
:102F60000E94302033FC09C0FF2039F0B60180E315
:102F700090E00E943020FA94F7CF37FE5AC0942D8B
:102F8000852D57FE02C090E080E0292E382E20E0EB
:102F900030E0A2014E1951095D874C87A201421908
:102FA00053095F874E87612F70E044275527461BE2
:102FB000570B598B488B5FEF2516350649F4B60140
:102FC0008EE290E02A8B3B8B0E9430203B892A893D
:102FD000421453046CF04C855D854215530544F44E
:102FE000EE85FF85E20FF31FE60DF71D818101C01D
:102FF00080E351E0251A31082F5F3F4F48895989F6
:10300000241635064CF0B60190E02A8B3B8B0E94CB
:1030100030202A893B89CFCF2414350439F49A8192
:10302000963318F4953311F404FF81E3B60190E070
:103030004BC08A81813309F00F7EB60190E00E9477
:103040003020111105C034FC18C085E690E017C08F
:10305000B6018EE290E00E94302082E0EE24E394FC
:10306000E80EF301E80FF11D8081B60190E00E94A7
:10307000302011508E2D91F7E6CF85E490E0B60117
:103080000E94302057FC05C04114510439F404FF5C
:1030900005C05194419451088DE201C08BE2B60104
:1030A00090E00E94302080E39AE0491651042CF011
:1030B0008F5F5AE0451A5108F7CFB60190E00E94A1
:1030C0003020B601C201C0960E94302057C183361D
:1030D00031F0833779F0833509F058C021C05201AF
:1030E000E2E0AE0EB11CF2018081898301E010E0C4
:1030F000230114C05201F2E0AF0EB11CF201408076
:10310000518026FF03C0612F70E002C06FEF7FEF98
:10311000C2012A8B0E9425208C012A892F7715C095
:103120005201F2E0AF0EB11CF2014080518026FF47
:1031300003C0612F70E002C06FEF7FEFC2012A8BE6
:103140000E941A208C012A892068322E23FD1AC081
:103150008F2D90E008171907A8F4B60180E290E0DF
:103160000E943020FA94F4CFF20137FC859137FEAB
:1031700081912F01B60190E00E943020F110FA9465
:10318000015011090115110579F7F8C0843611F0C5
:10319000893659F5520127FF09C0F4E0AF0EB11C82
:1031A000F20160817181828193810AC0F2E0AF0EE9
:1031B000B11CF20160817181072E000C880B990B04
:1031C0002F76322E97FF09C0909580957095619566
:1031D0007F4F8F4F9F4F2068322E2AE030E0A301AF
:1031E0000E947E20E82EE6183FC0022F853721F48A
:1031F0000F7E2AE030E01DC0097F8F3691F018F471
:10320000883559F0C5C0803719F0883711F0C0C033
:10321000006104FF09C0046007C024FF08C0066005
:1032200006C028E030E005C020E130E002C020E127
:1032300032E0520107FF09C0F4E0AF0EB11CF20109
:10324000608171818281938108C0F2E0AF0EB11C70
:10325000F2016081718180E090E0A3010E947E20F4
:10326000E82EE6180F77302E36FE0BC0332D3E7F4A
:10327000E11650F434FE0AC032FC08C0332D3E7E05
:1032800005C00E2D332D03C00E2D01C0012F34FFBC
:103290000CC0FE01EE0DF11D8081803311F4397EEA
:1032A00008C032FF05C00E5F04C0832F867809F086
:1032B0000F5F33FD13C030FF06C01E2D0F1518F42D
:1032C0001F0D101B0F2D0F1568F4B60180E290E062
:1032D0003B8B0E9430200F5F3B89F5CF0F1510F418
:1032E000F01A01C0F12C34FF12C0B60180E390E067
:1032F0003B8B0E9430203B8932FF17C031FD03C059
:1033000088E790E002C088E590E0B6010CC0832F0A
:10331000867859F031FF02C08BE201C080E237FDB0
:103320008DE2B60190E00E943020E11638F4B6013B
:1033300080E390E00E9430201150F7CFEA94F3012F
:10334000EE0DF11D8081B60190E00E943020E11069
:10335000F5CF14C0F4E0FF1558F584E0F81A33FEF9
:103360001EC0211026C003FF2AC00EEF10E0F32D6F
:10337000F0713F2EF8018491811124C0FF2009F4DF
:10338000E5CCB60180E290E00E943020FA94F6CFBE
:10339000F6018681978126C08FEF9FEF23C0B6018B
:1033A00080E290E00E943020FA94F110F8CFD9CF5B
:1033B000F12CB601822D90E00E943020D4CF02E0A3
:1033C00011E0D5CF31108052B60190E00E9430203C
:1033D0000F5F1F4FCFCF23E02F1510F483E0BECF38
:1033E000F12CC1CF6396E2E10C94EB1D0E940A1A06
:1033F0000C94BC1A0E94B51A58F00E94AE1A40F004
:1034000029F45F3F29F00C94A51A51110C94F01A7D
:103410000C94AB1A0E94CD1A68F39923B1F355238B
:1034200091F3951B550BBB27AA27621773078407D7
:1034300038F09F5F5F4F220F331F441FAA1FA9F36D
:1034400035D00E2E3AF0E0E832D091505040E6955B
:10345000001CCAF72BD0FE2F29D0660F771F881FBC
:10346000BB1F261737074807AB07B0E809F0BB0BAF
:10347000802DBF01FF2793585F4F3AF09E3F5105C3
:1034800078F00C94A51A0C94F01A5F3FE4F3983E80
:10349000D4F3869577956795B795F7959F5FC9F7AC
:1034A000880F911D9695879597F90895E1E0660F2D
:1034B000771F881FBB1F621773078407BA0720F0A6
:1034C000621B730B840BBA0BEE1F88F7E09508950F
:1034D000E89409C097FB3EF49095809570956195AE
:1034E0007F4F8F4F9F4F9923A9F0F92F96E9BB2764
:1034F0009395F695879577956795B795F111F8CFE0
:10350000FAF4BB0F11F460FF1BC06F5F7F4F8F4F4A
:103510009F4F16C0882311F096E911C0772321F040
:103520009EE8872F762F05C0662371F096E8862FD8
:1035300070E060E02AF09A95660F771F881FDAF72F
:10354000880F9695879597F9089597F99F6780E872
:1035500070E060E008959FEF80EC089500240A94E5
:103560001616170618060906089500240A9412165E
:103570001306140605060895092E0394000C11F491
:10358000882352F0BB0F40F4BF2B11F460FF04C03E
:103590006F5F7F4F8F4F9F4F089557FD9058440F97
:1035A000551F59F05F3F71F04795880F97FB991FA2
:1035B00061F09F3F79F0879508951216130614065F
:1035C000551FF2CF4695F1DF08C0161617061806EC
:1035D000991FF1CF86957105610508940895E894C7
:1035E000BB2766277727CB0197F908950E94D51A44
:1035F000A8F19E57B0F1985160F039F1983070F50C
:10360000092E9927660F771F881F991F0A94D1F7F3
:103610001CC0BB27993F4CF4B111B1E0B62B672F0A
:10362000782F8827985FB1F708C0869577956795BA
:10363000B79508F4B1609395C1F7BB0F30F411F45E
:1036400060FF03C06F5F7F4F8F4F3EF49095809572
:10365000709561957F4F8F4F9F4F089568940C949C
:10366000F01A0C94EF1A0E94461B0C94BC1A0E948C
:10367000AE1A38F00E94B51A20F0952311F00C9480
:10368000A51A0C94AB1A11240C94F01A0E94CD1AAE
:1036900070F3959FC1F3950F50E0551F629FF001A5
:1036A000729FBB27F00DB11D639FAA27F00DB11DBE
:1036B000AA1F649F6627B00DA11D661F829F222747
:1036C000B00DA11D621F739FB00DA11D621F839FCE
:1036D000A00D611D221F749F3327A00D611D231FA4
:1036E000849F600D211D822F762F6A2F11249F57F2
:1036F00050409AF0F1F088234AF0EE0FFF1FBB1FF5
:10370000661F771F881F91505040A9F79E3F5105B3
:1037100080F00C94A51A0C94F01A5F3FE4F3983EE5
:10372000D4F3869577956795B795F795E7959F5F5D
:10373000C1F7FE2B880F911D9695879597F90895EF
:10374000FA01EE0FFF1F309621053105A1F1611539
:10375000710561F48038BFE39B0749F168949038A4
:10376000810561F08038BFEF9B0741F099234AF54E
:10377000FF3FE1053105210519F1E8940894E7952B
:10378000D901AA2329F4AB2FBE2FF85FD0F310C0C4
:10379000FF5F70F4A695E0F7F73950F019F0FF3AA3
:1037A00038F49F779F930DD00F9007FC90580895A1
:1037B00046F00C94AB1A60E070E080E89FE3089557
:1037C0004FE79F775F934F933F932F930E949B1CEC
:1037D0002F913F914F915F910E94331B0C94F81BE6
:1037E00029F416F00C94A51A0C94EF1A0C94AB1A49
:1037F0000E94D51AA8F39638A0F707F80F92E8941C
:103800002BE33AEA48EB5FE70E94491B0F920F92C5
:103810000F924DB75EB70F920E94E31CECE7F0E009
:103820000E942A1C4F915F91EF91FF91E595EE1F49
:10383000FF1F49F0FE57E0684427EE0F441FFA953A
:10384000E1F74195550B0E945D1C0F9007FE0C940B
:10385000511C0895DF93CF931F930F93FF92EF9224
:10386000DF927B018C01689406C0DA2EEF010E9482
:10387000461BFE01E894A5912591359145915591FE
:10388000A6F3EF010E942F1DFE019701A801DA9413
:1038900069F7DF90EF90FF900F911F91CF91DF912B
:1038A00008959B01AC0160E070E080E89FE30C9418
:1038B000F6190C94A51A0C94841D0E94D51AD8F3FD
:1038C0009923C9F3940F511DA3F39150504094F0E4
:1038D00059F0882332F0660F771F881F91505040AF
:1038E000C1F79E3F51052CF7880F911D969587953E
:1038F00097F908955F3FACF0983E9CF0BB27869502
:1039000077956795B79508F4B1609395C1F7BB0FAC
:1039100058F711F460FFE8CF6F5F7F4F8F4F9F4FD5
:10392000E3CF0C94F01A16F00C94841D0C94AB1A8F
:1039300068940C94A51A0E94D51AA8F39923C1F390
:10394000AEF3DF93CF931F930F93FF92C92FDD2721
:1039500088232AF02197660F771F881FDAF720E067
:1039600030E040E85FEB9FE3883920F0803E38F09C
:1039700021968F770E94181DE4EAF0E004C00E94AF
:10398000181DE1EDF0E00E942A1C8B01BE01EC0144
:10399000FB2E6F5771097595771F880B990B0E9445
:1039A0006A1A28E132E741E35FE30E94461BAF2D2C
:1039B0009801AE01FF900F911F91CF91DF910E946E
:1039C0002F1D0C94BC1AFA01DC01AA0FBB1F9B012E
:1039D000AC01BF5728F4222733274427507820C052
:1039E000B75190F4AB2F0024469537952795011CCD
:1039F000A395D2F3002071F0220F331F441FB3951B
:103A0000DAF30ED00C94171D61307105A0E88A0717
:103A1000B94630F49B01AC01662777278827907858
:103A2000309621F020833183428353830895505888
:103A3000BB27AA270E942F1D0C94BC1A0E94AE1A05
:103A400038F00E94B51A20F039F49F3F19F426F49B
:103A50000C94AB1A0EF4E095E7FB0C94A51AE92F31
:103A60000E94CD1A58F3BA176207730784079507A7
:103A700020F079F4A6F50C94EF1A0EF4E0950B2ED5
:103A8000BA2FA02D0B01B90190010C01CA01A001B0
:103A90001124FF27591B99F0593F50F4503E68F10B
:103AA0001A16F040A22F232F342F4427585FF3CF4C
:103AB000469537952795A795F0405395C9F77EF41D
:103AC0001F16BA0B620B730B840BBAF09150A1F066
:103AD000FF0FBB1F661F771F881FC2F70EC0BA0FEC
:103AE000621F731F841F48F4879577956795B79574
:103AF000F7959E3F08F0B0CF9395880F08F099276F
:103B0000EE0F9795879508959F3F31F0915020F4DF
:103B1000879577956795B795880F911D96958795A9
:103B200097F90895DB018F939F930E94C41DBF9165
:103B3000AF91A29F800D911DA39F900DB29F900DFC
:103B400011240895A1E21A2EAA1BBB1BFD010DC072
:103B5000AA1FBB1FEE1FFF1FA217B307E407F5073D
:103B600020F0A21BB30BE40BF50B661F771F881F19
:103B7000991F1A9469F760957095809590959B01AF
:103B8000AC01BD01CF0108950E94061EA59F900DB6
:103B9000B49F900DA49F800D911D112408952F9224
:103BA0003F924F925F926F927F928F929F92AF92CD
:103BB000BF92CF92DF92EF92FF920F931F93CF931A
:103BC000DF93CDB7DEB7CA1BDB0B0FB6F894DEBFB1
:103BD0000FBECDBF09942A88398848885F846E84D7
:103BE0007D848C849B84AA84B984C884DF80EE8021
:103BF000FD800C811B81AA81B981CE0FD11D0FB62A
:103C0000F894DEBF0FBECDBFED010895A29FB001B5
:103C1000B39FC001A39F700D811D1124911DB29F00
:103C2000700D811D1124911D0895CF93DF93823073
:103C3000910510F482E090E0E0911602F0911702F5
:103C400020E030E0C0E0D0E0309711F140815181B8
:103C500048175907C0F04817590761F482819381CA
:103C6000209719F09B838A832BC09093170280932F
:103C7000160226C02115310519F04217530718F412
:103C80009A01BE01DF01EF010280F381E02DDCCF5C
:103C90002115310509F1281B390B2430310590F429
:103CA00012968D919C9113976115710521F0FB017E
:103CB0009383828304C09093170280931602FD01C0
:103CC000329644C0FD01E20FF31F8193919322507D
:103CD00031092D933C933AC0209114023091150282
:103CE000232B41F420911E0130911F0130931502C6
:103CF0002093140220911C0130911D0121153105E2
:103D000041F42DB73EB74091200150912101241B71
:103D1000350BE0911402F0911502E217F307A0F4BD
:103D20002E1B3F0B2817390778F0AC014E5F5F4F11
:103D30002417350748F04E0F5F1F5093150240932C
:103D400014028193919302C0E0E0F0E0CF01DF9193
:103D5000CF9108950F931F93CF93DF93009709F4AA
:103D60008CC0FC01329713821282009116021091CE
:103D700017020115110581F420813181820F931FF3
:103D800020911402309115022817390779F5F09324
:103D90001502E093140271C0D80140E050E0AE1764
:103DA000BF0750F412962D913C911397AD01211548
:103DB000310509F1D901F3CF9D01DA013383228363
:103DC00060817181860F971F8217930769F4EC0158
:103DD00028813981260F371F2E5F3F4F3183208383
:103DE0008A819B8193838283452B29F4F093170268
:103DF000E093160242C01396FC93EE931297ED01E6
:103E0000499159919E01240F351FE217F30771F470
:103E100080819181840F951F029611969C938E93B9
:103E20008281938113969C938E931297E0E0F0E049
:103E3000D80112968D919C911397009719F0F80173
:103E40008C01F6CF8D919C9198012E5F3F4F820F90
:103E5000931F20911402309115022817390769F435
:103E6000309729F4109217021092160202C01382A2
:103E700012821093150200931402DF91CF911F91CB
:103E80000F910895283008F027E03327DA01990FC1
:103E9000311D87FD916000966105710539F432602E
:103EA0002E5F3D9330E32A95E1F708959F3F30F070
:103EB00080387105610509F03C5F3C5F3D939130AE
:103EC00008F08068911DDF93CF931F930F93FF92AB
:103ED000EF92192F987F9695E92F96959695E90F71
:103EE000FF27E05AFE4F99273327EE24FF24A7012E
:103EF000E70105900894079428F4360FE71EF81E92
:103F0000491F511D660F771F881F991F0694A1F73F
:103F10000590079428F4E70EF81E491F561FC11D8F
:103F2000770F881F991F661F0694A1F705900794C5
:103F300028F4F80E491F561FC71FD11D880F991F5F
:103F4000661F771F0694A1F70590079420F4490F88
:103F5000561FC71FD81F990F661F771F881F06940B
:103F6000A9F784911095177041F0D695C79557958C
:103F70004795F794E7941A95C1F7E6E0F1E0689465
:103F80001590159135916591959105907FE2739506
:103F9000E118F10A430B560BC90BD009C0F7E10C2D
:103FA000F11E431F561FC91FD01D7EF4703311F43C
:103FB0008A95E6CFE894015030F0080F0AF4002704
:103FC000021708F4202F2395022F7A3328F079E383
:103FD0007D932A95E9F710C07D932A9589F606947A
:103FE00097956795379517951794E118F10A430B44
:103FF000560BC90BD00998F023957E9173957A33AF
:1040000008F070E37C932013B8F77E9170617D9384
:1040100030F0839571E37D9370E32A95E1F71124E5
:10402000EF90FF900F911F91CF91DF91992787FD1E
:1040300090950895FC010590615070400110D8F7EB
:10404000809590958E0F9F1F0895FC0161507040E0
:1040500001900110D8F7809590958E0F9F1F0895BD
:104060000F931F93CF93DF93FB01238121FD03C0A7
:104070008FEF9FEF28C022FF16C046815781248111
:1040800035814217530744F4A081B1819D012F5F10
:104090003F4F318320838C93268137812F5F3F4FA1
:1040A0003783268310C0EB01092F182F0084F18578
:1040B000E02D0995892BE1F68E819F8101969F83E2
:1040C0008E83812F902FDF91CF911F910F910895B3
:1040D000A0E0B0E0EEE6F0E20C94DF1DAE014B5F35
:1040E0005F4FFA0161917191AF0180911A02909135
:1040F0001B020E947A16E2E00C94FB1DFA01AA272B
:10410000283051F1203181F1E8946F936E7F6E5F1A
:104110007F4F8F4F9F4FAF4FB1E03ED0B4E03CD0C8
:10412000670F781F891F9A1FA11D680F791F8A1FAB
:10413000911DA11D6A0F711D811D911DA11D20D012
:1041400009F468943F912AE0269F11243019305DCC
:104150003193DEF6CF010895462F4770405D4193BD
:10416000B3E00FD0C9F7F6CF462F4F70405D4A330A
:1041700018F0495D31FD4052419302D0A9F7EACFD2
:10418000B4E0A6959795879577956795BA95C9F701
:1041900000976105710508959B01AC010A2E0694F4
:1041A0005795479537952795BA95C9F7620F731FAD
:0C41B000841F951FA01D0895F894FFCFF8
:1041BC0001010110080400000002000000005B0D6A
:1041CC0000000000180C041060C0802000001E02CB
:0641DC00200025640A002A
:00000001FF
