:100000000C940B030C9428030C9428030C942803E1
:100010000C94F90C0C94220D0C944B0D0C94740D53
:100020000C9428030C94DA0B0C94030C0C942C0CF9
:100030000C94A70C0C94550C0C947E0C0C94D00CC6
:100040000C945F0B0C94880B0C94B10B0C9428034C
:100050000C9428030C9428030C9428030C94280374
:100060000C9428030C9428030C9428030C94280364
:100070000C9428030C9428030C942803076342363D
:10008000B79BD8A71A39685618AEBAAB558C1D3C29
:10009000B7CC5763BD6DEDFD753EF6177231BF00ED
:1000A0000000803F08000000BE922449123EABAA27
:1000B000AA2ABECDCCCC4C3E00000080BEABAAAA82
:1000C000AA3E00000000BF000000803F00000000CA
:1000D00000084178D3BB4387D1133D190E3CC3BD03
:1000E0004282AD2B3E68EC8276BED98FE1A93E4CB0
:1000F00080EFFFBE01C4FF7F3F00000000006E6183
:100100006E00696E660000407A10F35A00A0724ECD
:1001100018090010A5D4E80000E87648170000E4AC
:100120000B54020000CA9A3B000000E1F5050000F4
:1001300080969800000040420F000000A086010059
:100140000000102700000000E80300000000640029
:10015000000000000A000000000001000000000094
:100160002C76D888DC674F0823DFC1DFAE59E1B1B8
:10017000B796E5E3E453C63AE651997696E8E6C2C7
:100180008426EB898C9B62ED407C6FFCEFBC9C9FCE
:1001900040F2BAA56FA5F490055A2AF75C936B6CF0
:1001A000F9676DC11BFCE0E40D47FEF520E6B500E4
:1001B000D0ED902E0300943577050080841E080052
:1001C00000204E0A000000C80C333333330F986E02
:1001D00012831141EF8D2114893BE65516CFFEE6BF
:1001E000DB18D1844B381BF77C1D901DA4BBE42485
:1001F000203284725E228100C9F124ECA1E53D2702
:1002000016050100000000000000FA000000E000F8
:10021000E00028FE28FE282454FE5448C4C81026B6
:10022000466C92AA44A000A0C0000000384482009E
:10023000008244380028107C102810107C10100018
:100240000A0C000010101010100006060000040830
:100250001020407C8A92A27C0042FE020042868AE4
:1002600092628482A2D28C182848FE08E4A2A2A23C
:100270009C3C5292920C808E90A0C06C9292926C98
:100280006092929478006C6C0000006A6C00001020
:1002900028448200282828282800824428104080EA
:1002A0008A90604C929E827C7E8888887EFE9292A4
:1002B000926C7C82828244FE82824438FE929292C8
:1002C00082FE909090807C8292925EFE101010FED2
:1002D0000082FE8200040282FC80FE10284482FE1E
:1002E00002020202FE403040FEFE201008FE7C8228
:1002F00082827CFE909090607C828A847AFE9098C4
:100300009462629292928C8080FE8080FC02020253
:10031000FCF8040204F8FC021C02FCC6281028C6E3
:10032000E0100E10E0868A92A2C200FE8282004097
:1003300020100804008282FE00204080402002023B
:100340000202020080402000042A2A2A1EFE1222F5
:10035000221C1C222222041C222212FE1C2A2A2ACF
:1003600018107E908040304A4A4A7CFE1020201EA1
:100370000022BE0200040222BC00FE08142200007B
:1003800082FE02003E2018201E3E1020201E1C224D
:1003900022221C3E28282810102828183E3E102013
:1003A0002010122A2A2A0420FC2202043C02020401
:1003B0003E38040204383C020C023C221408142289
:1003C000300A0A0A3C22262A322200106C820000DF
:1003D00000FE000000826C100008101008100000E1
:1003E0000000007F8181817F7F8383837F7F878778
:1003F000877F7F8F8F8F7F7F9F9F9F7F7FBFBFBFB5
:100400007F7FFFFFFF7F2040FF40206215171565AB
:1004100000FBFB00000000000000C0FF0300E0FF45
:100420000700F0FF0F00F8FF1F0078001E007800A3
:100430001E0078001E0078001E0078001E00780064
:100440001E0078001E0078001E0078001E000000CC
:1004500000000000000080FF0300E0FF0700F0FF45
:100460000F00F8FF1F00F83C1F00783C1E00783C8E
:100470001E00783C1E00783C1E00783C1E00783C34
:100480001E00783C1E00783C1E00783C1E00783C24
:100490001E000000000000000000E0FF0300F0FF6D
:1004A0000700F8FF0F00F8FF1F00783C1E00783CA3
:1004B0001E00783C1E00783C1E00783C1E00783CF4
:1004C0001E00783C1E00783C1E00783C1E00783CE4
:1004D0001E000000000000000000F8FF0300F8FF0D
:1004E0000F00F8FF1F00F8FF1F0000001E000000B3
:1004F0001E0000801F0000F01F0000FF0F00E0FF43
:100500000700F0FF0000F80F0000F800000078007E
:10051000000078000000F8FF1F00F8FF1F00F0FF48
:100520001F00E0FF1F000000000000000000F8FFB7
:100530001F00F8FF1F00F8FF1F00F8FF1F007800E2
:100540001E00783C1E00783C1E00783C1E00783C63
:100550001E00783C1E00783C1E00F87E1F00F8FF4D
:100560001F00F0FF0F00E0E70300000000000000A4
:100570003800EEFF6C002A8045003A0047FC03FF7C
:100580006CFC83FF3900DEFF0B7CD0810BFCD0813B
:100590000BC0D0810BFCD0810B7CDEFF0B0082FFF7
:1005A000397002FF6CF83A0047DC2A8045CCEEFF38
:1005B0006CCC000038000000000C00001E0C000095
:1005C0001E0000001E0000001E0000001E00F8FFBC
:1005D0001F00F8FF1F00F8FF1F00F8FF1F000000BA
:1005E0001E0000001E0000001E0000001E00000093
:1005F0005E000000400000007C00000040000000A1
:10060000400000007C0000003000000010000000EE
:10061000300000007C0011241FBECFEFD8E0DEBF09
:10062000CDBF11E0A0E0B1E0E6E2F3E402C0059046
:100630000D92A837B107D9F722E0A8E7B1E001C0D1
:100640001D92A937B207E1F70E942A030C94912169
:100650000C9400000E945D0B0E944F0B0E941C1620
:1006600080E090E008950F931F9385E00E940A0AAE
:100670008823C1F080E460E00E94300400E0802F15
:1006800060E00E94DB0310E080E061E00E94300443
:100690001F5F1038C9F70F5F043089F783E060E00F
:1006A0000E941E041F910F9108950F931F9385E0E0
:1006B0000E94FD09882311F082E07AC00E940F0594
:1006C000182F0E94160A1150123008F06DC0815088
:1006D000823008F069C00E944B048EEA60E00E94FC
:1006E000300482EA60E00E94300480EA60E00E9408
:1006F000300400E513ECC8010197F1F780EC60E0ED
:100700000E9430048FE260E00E94300481E860E0E3
:100710000E94300486E160E00E94300482E260E0E2
:100720000E943004C8010197F1F78FEA60E00E944F
:10073000300486EA60E00E94300485EA60E00E94AE
:10074000300480E090E028E833E1F9013197F1F7D7
:10075000019643E0883E9407C1F783EB60E00E9476
:10076000300480E460E00E94300483E060E00E9496
:10077000DB0383E060E00E941E04109203021092EB
:1007800005021092040280E091E09093760280933B
:10079000750288E10E94FD030E94330384EA60E051
:1007A0000E94300481E004C085E00E94ED0987E0EA
:1007B0001F910F910895FF920F931F93082FF62E0C
:1007C00085E00E940A0A8823A1F01F2D1F7703707D
:1007D000802F806B60E00E94300412951F70812F83
:1007E000806160E00E9430048F2D8F7060E00E9475
:1007F00030041F910F91FF9008951F93182F85E0EB
:100800000E940A0A8823C1F087E00E94610582E005
:100810006AE00E94B20582E061EB0E94B205612F9E
:10082000113208F060E282E00E94B20589EE8A95FA
:10083000F1F787E00E9461051F9108950F931F93C0
:10084000082F162F85E00E940A0A882331F00370D2
:100850001F7710930102009302021F910F910895D8
:100860000F931F93082F162F85E00E940A0A8823F2
:1008700079F0112319F0113021F402C02B9801C036
:100880002B9A86E08A95F1F780E0602F0E94B205EE
:100890001F910F910895239A089584E00E94FD0905
:1008A000882311F082E008950E940F058150823064
:1008B00068F41092060280E8809307028093080291
:1008C0008093090280930A0281E0089584E00E94E7
:1008D000ED0987E00895EF92FF920F931F93CF9356
:1008E000DF938C0184E00E940A0A882309F48EC0F9
:1008F0000115110509F48AC087E00E946105C0E076
:10090000D0E08AEFE82EF12CFE01E25FFE4F81E09D
:1009100060810E944805FE01E454FE4F8083C701B8
:100920000197F1F7209779F0C430D10529F480912F
:10093000BD01813441F40BC0C830D10521F4809150
:10094000BD01833721F02196C930D105E9F687E052
:100950000E9461058091BE018A3509F053C08091E3
:10096000BD01813421F481E0F801808342C08337E6
:10097000E1F582E0F80180838091C1018058809385
:10098000C1018091C30180588093C3018091C2014D
:10099000809580588093C2018091C40180958058D1
:1009A0008093C40183838091C30184838091C201B9
:1009B00085838091C101868380910602882399F402
:1009C0008091C401809307028091C3018093080243
:1009D0008091C201809309028091C10180930A0233
:1009E00081E08093060291E005C0F8011082109228
:1009F000060290E08091BF01F80181838091C001DF
:100A0000828305C0F80110821092060290E0892FBF
:100A1000DF91CF911F910F91FF90EF90089582E0A9
:100A20000E94FD09882311F082E008950E94C1050B
:100A300080E061ED7EE00E94580581E069EC7EE097
:100A40000E94580582E061EC7EE00E94580586E035
:100A500069ED7EE00E94580583E069EB7EE00E942C
:100A6000580584E069EB7EE00E94580585E069EB5B
:100A70007EE00E94580587E069EB7EE00E94580501
:100A80008FEF8093140287E00E94610581E0089552
:100A90001F93162F0E94610582E00E940A0A882394
:100AA00029F01EBD0DB407FEFDCF8EB51F91089530
:100AB000E82FF0E0EE0FFF1FEB53FE4F71836083D2
:100AC00008951F93182F82E00E940A0A882309F4D0
:100AD00047C0912F977080911402981709F440C075
:100AE0009093140285B1887F892B85B9933011F1D9
:100AF000943028F4913051F0923090F40CC095303D
:100B000019F19530E0F0963021F50FC0E091C70162
:100B1000F091C80122C0E091C501F091C6011DC04D
:100B2000E091C901F091CA0118C0E091D101F091A2
:100B3000D20113C0E091CB01F091CC010EC0E09145
:100B4000CD01F091CE0109C0E091CF01F091D0012B
:100B500004C0E091D301F091D401309709F00995D8
:100B60001F9108951F93162F0E94610582E00E9435
:100B70000A0A882321F01EBD0DB407FEFDCF1F9188
:100B80000895259A2698279A209A219A229A0895BC
:100B90002F923F924F925F926F927F928F929F928D
:100BA000AF92BF92CF92DF92EF92FF920F931F937B
:100BB000DF93CF930F92CDB7DEB7582E962E442EEB
:100BC0003901C9821501CE88DF88A88CB98C6A8D5D
:100BD0007B8D81E0981619F1981628F092E099160D
:100BE00009F070C03EC080E0B7010E94B80780E005
:100BF000642DA30198010981EE24E3947CE4C72EBF
:100C000072E0D72E0E947808552009F05BC000D012
:100C10000F92EDB7FEB71182338222821CC081E0B1
:100C20000E94B80781E0682DA60195010C8DEE2485
:100C3000E3949CE4C92E92E0D92E0E9478085520B6
:100C400009F040C000D00F92EDB7FEB791828D8DB4
:100C50009E8D938382830E9490090F900F900F9036
:100C600031C0C7010E94DA0700D08CE492E0EDB7F2
:100C7000FEB792838183842DB301A8012981082DB9
:100C800076016501AC8C882483940E940B090F9037
:100C90000F905520B9F400D000D00F92ADB7BEB779
:100CA0001196EDB7FEB79182FD01328221828D8DC2
:100CB0009E8D948383830E9490090F900F900F90D4
:100CC0000F900F900F90CF91DF911F910F91FF9098
:100CD000EF90DF90CF90BF90AF909F908F907F90DC
:100CE0006F905F904F903F902F9008954F925F923A
:100CF0007F928F929F92AF92BF92CF92DF92EF92AC
:100D0000FF920F931F93DF93CF93CDB7DEB7562F8C
:100D1000942E7C2CAA89BB89CC88DD886E897F893A
:100D2000988D813009F445C0813030F1823009F06E
:100D300066C0513071F0513020F0523009F05FC080
:100D400011C080E0B7010E94B80780E0692DA801BA
:100D500006C081E00E94B80781E0682DA6010E94CC
:100D600084074DC0C7010E94DA07892DB801482DBC
:100D700096010E949B0743C0EDB7FEB739970FB6A7
:100D8000F894FEBF0FBEEDBF4DB65EB60894411C91
:100D9000511CB283A183F201D382C2827583648322
:100DA0009683898D9A8D9087878380E0652FC72CE5
:100DB0001CC0EDB7FEB739970FB6F894FEBF0FBE53
:100DC000EDBFADB6BEB60894A11CB11CB283A18321
:100DD000F501D382C282758364839683108617825D
:100DE00081E0652FC72CAA24BB240E94C8058DB7BB
:100DF0009EB709960FB6F8949EBF0FBE8DBFCF91D8
:100E0000DF911F910F91FF90EF90DF90CF90BF90F7
:100E1000AF909F908F907F905F904F90089587E064
:100E20000E94FD09882311F082E008950E94E309E1
:100E300081E080934B0210921502109216021092DC
:100E400018021092170210921A02109219021092B0
:100E50001C0210921B0210921E0210921D02109290
:100E6000200210921F021092220210922102109270
:100E70002402109223021092260210922502109250
:100E800028021092270210922A0210922902109230
:100E90002C0210922B0210922E0210922D02109210
:100EA00033021092340210923502109236021092E0
:100EB00038021092390210923A0210923B021092BC
:100EC0003C0210923D0210923E021092400210929B
:100ED0003F0210924202109241021092440210927C
:100EE0004302109246021092450210923002109274
:100EF0002F02109232021092310210924A02109286
:100F0000490210924B020895EF92FF920F931F93A4
:100F1000182F062F7A0160E00E941708812F602F9A
:100F20000E94F807812FB7010E942C081F910F9192
:100F3000FF90EF900895CF92DF92EF92FF920F9380
:100F40001F93C82E7B01D42E890182E060E00E94AD
:100F500017088C2D6D2D0E940D08C701B8010E9445
:100F600059081F910F91FF90EF90DF90CF90089557
:100F7000482F81E080934B02CB0123E0693E72074A
:100F800010F088EE93E0413071F0413018F04230BB
:100F900071F405C09093200280931F0208C09093C3
:100FA000200280931F0290932202809321021092CC
:100FB0004B02089521E020934B02AC0183E0493EAF
:100FC000580710F048EE53E09B0183E0693E780734
:100FD00010F028EE33E0F8945093200240931F0263
:100FE0003093220220932102789410924B020895AC
:100FF000982F81E080934B02913051F0913018F09E
:10100000923041F403C06093380204C06093380208
:101010006093390210924B02089591E090934B0235
:10102000E8E3F2E08193608310924B020895982FD9
:1010300081E080934B02913051F0913018F0923062
:1010400041F403C06093150204C0609315026093DD
:10105000160210924B020895482F81E080934B02B4
:10106000CB0121E06139720710F080E991E0413055
:1010700061F0413018F04230C9F40EC0F8949093FA
:10108000180280931702789411C0F89490931A0272
:101090008093190278940AC0F89490931802809370
:1010A000170290931A0280931902789410924B02BF
:1010B0000895AC0181E080934B02F894CB0121E0CC
:1010C0006139720710F080E991E090931A028093E1
:1010D00019029A0181E04139580710F020E931E006
:1010E0003093180220931702789410924B020895BF
:1010F0008F929F92AF92BF92CF92DF92EF92FF9228
:101100000F931F93CF93DF93182FF62E4A015901A7
:10111000E60187E00E940A0A882309F46FC0812F44
:1011200061E00E941708812FB401A5010E94A3105D
:10113000812F6F2D0E94F807812F602F0E948E1043
:10114000812FB4010E946610C114D10499F01130AE
:1011500049F0113018F0123069F406C0188210926C
:10116000470208C0198204C01882198210924702EF
:1011700010924802D0934A02C0934902EE20B9F57A
:1011800088E791E090934A0280934902812FB5014C
:101190000E942C08812F0E945110113071F01130E3
:1011A00018F0123059F512C01092780110924702CF
:1011B000809178018823E1F321C010927901109287
:1011C0004802809179018823E1F318C010927801D8
:1011D0001092790110924702109248028091780192
:1011E0008823E1F3809179018823C1F307C0812F1F
:1011F000B5010E942C08812F0E945110DF91CF91E0
:101200001F910F91FF90EF90DF90CF90BF90AF9024
:101210009F908F9008953F924F925F926F927F922E
:101220008F929F92AF92BF92CF92DF92EF92FF92F6
:101230000F931F93DF93CF93CDB7DEB7982E2B017B
:101240003A01322EB02E0C891D8987E00E940A0ACD
:10125000882309F453C082E061E00E94170880E00F
:10126000B201A3010E94A31081E0B701A6010E9470
:10127000A310892D6B2D0E940D0880E0632D0E9424
:101280008E1081E06A2D0E948E10C201B7010E946B
:1012900081100115110539F0F801108211821092A8
:1012A00047021092480210934A0200934902882094
:1012B000F1F48AE791E090934A0280934902C301D6
:1012C000B6010E94590882E00E94511010927A01E2
:1012D00010927B01109247021092480280917A018D
:1012E0008823E1F380917B018823C1F307C0C30108
:1012F000B6010E94590882E00E945110CF91DF91FF
:101300001F910F91FF90EF90DF90CF90BF90AF9023
:101310009F908F907F906F905F904F903F90089537
:10132000CF92DF92EF92FF920F931F93DF93CF93B1
:10133000CDB7DEB71B8587E00E940A0A8823D1F16A
:10134000113061F0113018F01230A1F511C0EC85A8
:10135000FD8580914C028823E1F306C0EC85FD8574
:1013600080914D028823E1F3309721F1099522C045
:10137000CC84DD84EE84FF8400E010E0002351F48F
:1013800080914C02882331F0C114D10411F0F60190
:10139000099501E0112351F480914D02882331F029
:1013A000E114F10411F0F701099511E0002331F384
:1013B000112321F3CF91DF911F910F91FF90EF90B7
:1013C000DF90CF9008953A9A3B9A3C9A3D9A3E9A84
:1013D0003F9A88B1837088B90895853160F4E82F09
:1013E000F0E0E451FE4F8081882329F08081815014
:1013F0008083808108958FEF0895853110F080E01B
:101400000895E82FF0E0E451FE4F80818F5F8083E4
:1014100081500895853110F080E00895E82FF0E0C4
:10142000E451FE4F8081811181E00895DF93CF93D5
:1014300000D00F92CDB7DEB781E00E94FD0988236E
:1014400011F082E011C00E940F058150823040F4FB
:101450000E943A0ACE0101960E94F71081E004C072
:1014600081E00E94ED0987E00F900F900F90CF91DF
:10147000DF91089510926302109262021092650249
:101480001092640210926702109266021092690232
:101490001092680210926B0210926A0280E991E049
:1014A00090934F0280934E0290935102809350028A
:1014B000909353028093520290935502809354026A
:1014C000909357028093560284E398E090935902D8
:1014D0008093580290935B0280935A0290935D022E
:1014E00080935C0290935F0280935E02909361020E
:1014F0008093600208950F931F93DF93CF93CDB72E
:10150000DEB729970FB6F894DEBF0FBECDBF8C01B2
:1015100088E00E940A0A882311F491E00DC0CE01F0
:10152000019661E040E098010E94A80A982F882364
:1015300019F48F818823E9F3892F29960FB6F8943F
:10154000DEBF0FBECDBFCF91DF911F910F910895E8
:10155000EF92FF920F931F93CF93DF93EC01F62E40
:10156000E42E890188E00E940A0A882311F481E0B0
:1015700026C084E090E00E94CA1EFC01009711F48E
:1015800082E01DC0F982F0FC1E8281E0E81619F4A9
:101590008981846089838981886089831B830A8328
:1015A0001D830C83D183C0831382128281E08093D8
:1015B000E501CF010E94E60A1092E50180E0DF918B
:1015C000CF911F910F91FF90EF900895CF92DF92EE
:1015D000EF92FF920F931F93CF93DF93EC018091D3
:1015E0006C02882339F4D0936E02C0936D020E947E
:1015F000501147C0C0906D02D0906E0200E010E024
:10160000EE24FF2437C0A881B981FD016481758172
:10161000F60140815181FA01848195819B01281B4B
:10162000390B37FF0FC0861B970B95838483DB82B2
:10163000CA82012B29F4D0936E02C0936D0221C09F
:10164000F7010CC0F601828193812115310549F41F
:10165000FD01158214829B838A83F601D383C283A2
:1016600010C0FD01358324830097B9F30F5F1F4F2E
:1016700076016C0180916C0290E00817190718F24E
:10168000ECCF80916C028F5F80936C02DF91CF91E1
:101690001F910F91FF90EF90DF90CF9008950E94DF
:1016A000E0100E945B0E0E949D0D0E9434110E946A
:1016B0000F050E94160A78940895000008951F925D
:1016C0000F920FB60F9211242F933F934F935F9376
:1016D0006F937F938F939F93AF93BF93EF93FF93FA
:1016E000E0919C01F0919D01309709F00995FF91DF
:1016F000EF91BF91AF919F918F917F916F915F918A
:101700004F913F912F910F900FBE0F901F90189502
:101710001F920F920FB60F9211242F933F934F9366
:101720005F936F937F938F939F93AF93BF93EF9349
:10173000FF93E0919E01F0919F01309709F0099588
:10174000FF91EF91BF91AF919F918F917F916F9199
:101750005F914F913F912F910F900FBE0F901F906F
:1017600018951F920F920FB60F9211242F933F934B
:101770004F935F936F937F938F939F93AF93BF9399
:10178000EF93FF93E091A001F091A101309709F050
:101790000995FF91EF91BF91AF919F918F917F91AB
:1017A0006F915F914F913F912F910F900FBE0F90CE
:1017B0001F9018951F920F920FB60F9211242F931E
:1017C0003F934F935F936F937F938F939F93AF93C9
:1017D000BF93EF93FF93E0918E01F0918F013097CB
:1017E00009F00995FF91EF91BF91AF919F918F9172
:1017F0007F916F915F914F913F912F910F900FBE0D
:101800000F901F9018951F920F920FB60F921124F0
:101810002F933F934F935F936F937F938F939F93F8
:10182000AF93BF93EF93FF93E0919001F0919101FB
:10183000309709F00995FF91EF91BF91AF919F917A
:101840008F917F916F915F914F913F912F910F9069
:101850000FBE0F901F9018951F920F920FB60F9208
:1018600011242F933F934F935F936F937F938F93A5
:101870009F93AF93BF93EF93FF93E0919201F09109
:101880009301309709F00995FF91EF91BF91AF91C6
:101890009F918F917F916F915F914F913F912F9188
:1018A0000F900FBE0F901F9018951F920F920FB6BA
:1018B0000F9211242F933F934F935F936F937F93D6
:1018C0008F939F93AF93BF93EF93FF93E091960114
:1018D000F0919701309709F00995FF91EF91BF9131
:1018E000AF919F918F917F916F915F914F913F91B8
:1018F0002F910F900FBE0F901F9018951F920F926F
:101900000FB60F9211242F933F934F935F936F93D2
:101910007F938F939F93AF93BF93EF93FF93E09148
:101920009801F0919901309709F00995FF91EF9195
:10193000BF91AF919F918F917F916F915F914F91E7
:101940003F912F910F900FBE0F901F9018951F92EF
:101950000F920FB60F9211242F933F934F935F93E3
:101960006F937F938F939F93AF93BF93EF93FF9367
:10197000E0919401F0919501309709F00995FF915C
:10198000EF91BF91AF919F918F917F916F915F91F7
:101990004F913F912F910F900FBE0F901F90189570
:1019A0001F920F920FB60F9211242F933F934F93D4
:1019B0005F936F937F938F939F93AF93BF93EF93B7
:1019C000FF93E0919A01F0919B01309709F00995FE
:1019D000FF91EF91BF91AF919F918F917F916F9107
:1019E0005F914F913F912F910F900FBE0F901F90DD
:1019F00018951F920F920FB60F9211242F933F93B9
:101A00004F935F936F937F938F939F93AF93BF9306
:101A1000EF93FF93E0918401F0918501309709F0F5
:101A20000995FF91EF91BF91AF919F918F917F9118
:101A30006F915F914F913F912F910F900FBE0F903B
:101A40001F9018951F920F920FB60F9211242F938B
:101A50003F934F935F936F937F938F939F93AF9336
:101A6000BF93EF93FF93E0918601F0918701309748
:101A700009F00995FF91EF91BF91AF919F918F91DF
:101A80007F916F915F914F913F912F910F900FBE7A
:101A90000F901F9018951F920F920FB60F9211245E
:101AA0002F933F934F935F936F937F938F939F9366
:101AB000AF93BF93EF93FF93E0918801F091890179
:101AC000309709F00995FF91EF91BF91AF919F91E8
:101AD0008F917F916F915F914F913F912F910F90D7
:101AE0000FBE0F901F9018951F920F920FB60F9276
:101AF00011242F933F934F935F936F937F938F9313
:101B00009F93AF93BF93EF93FF93E0918A01F0917E
:101B10008B01309709F00995FF91EF91BF91AF913B
:101B20009F918F917F916F915F914F913F912F91F5
:101B30000F900FBE0F901F90189580E10E94FD0935
:101B4000882311F082E00895ECE7F1E01192119200
:101B500081E0EC3BF807D1F781E00895FF920F9305
:101B60001F93CF93DF93F82E8AE0F816B1F08F150C
:101B700048F0E8E0FE16B9F1EF1538F1F7E0FF168E
:101B800051F43BC08DE0F81659F0EBE1FE1689F0F8
:101B9000FCE0FF1641F001E041C01092010203C0D9
:101BA000109201023AC08091020281508093020299
:101BB00034C00E94330314C080E061E00E9430040E
:101BC000809101028F5F809301028091010287FF63
:101BD000F3CF1092010280910202815080930202A1
:101BE00000E011E01CC0809101028823B1F08091D7
:101BF000010286508093010210C081E00E94A30F71
:101C000064EF71E080E090E04DE750E024E630E0E2
:101C10000E94AF0F81E00E940A0F00E010E0809167
:101C20000202609101020E94DB03002351F185E072
:101C3000F89EC0011124EC01CD59DE4F8C010859EA
:101C40001E4FFE01849161E00E9430042196C0176E
:101C5000D107B9F780E061E00E9430048091010271
:101C60008A5F809301028091010290E08C37910598
:101C70003CF0109201028091020281508093020296
:101C800011E080910202837080930202113059F4B6
:101C900080910302813039F4E0910402F091050251
:101CA000309709F0099580E090E0DF91CF911F9186
:101CB0000F91FF900895F8940E94B60E81E00E9463
:101CC000630E81E00895813049F0F894813020F16D
:101CD0008230B1F0833009F045C017C02C9A80E8FB
:101CE000809361001092610080E090E00000019616
:101CF00088329105D9F71092680010926B00089510
:101D000080E88093610083E004C080E880936100F4
:101D100088E08093610028C080E090E00000019698
:101D20002DE680369207D1F72C9880E090E00000F5
:101D300001962DE680369207D1F710927A008FEF48
:101D40008093640080916800816080936800809136
:101D50006B00846080936B00789483B7816083BF4D
:101D600088950895823008F078940895249A2C9AE2
:101D7000089583E58CBD81E08DBD8DE08A95F1F7F6
:101D8000089583E58CBD1DBC84EF91E00197F1F7C8
:101D900008958FE78CBD1DBC84EF91E00197F1F7AA
:101DA000089583E58CBD81E08DBD8DE08A95F1F7C6
:101DB000089583E58CBD81E08DBD84EF91E00197AE
:101DC000F1F708958AE00E94ED09882329F481E063
:101DD0000E9405101092D601089589E00E94ED0935
:101DE0008823B9F48091D501882311F00E944B100B
:101DF00082E00E9405108091E3019091E401009738
:101E000031F00E945F1F1092E4011092E3011092E2
:101E1000D5010895813029F0823029F40E94ED0E19
:101E200008950E94E20E08950F931F93CF93DF93BE
:101E300080E291E00E94CA1E9C019093E40180938D
:101E4000E301892B11F480E039C08901C0E0D0E0C2
:101E5000BE0180E090E00E941D1B20E030E040EADF
:101E600051E40E94AB1A27EF35E740E05FE30E94A0
:101E7000E81B9B01AC0160E070E080E291E40E940D
:101E8000551C9B01AC01CA01B9012DEC3CEC42E8A8
:101E900051E40E94E81B0E94AB1B2AE030E040E0C6
:101EA00050E00E94471EF8016193719381939193D2
:101EB0008F012196C834D10559F681E0DF91CF9189
:101EC0001F910F9108958AE00E94FD09882311F067
:101ED00082E008951092E0011092DF0181E00E94FB
:101EE000211081E08093D60108951F9389E00E941C
:101EF000FD09882311F082E024C08BE00E940A0AC9
:101F00008823D9F40E94140F182F813011F086E035
:101F100018C01092D7011092D8011092D9011092D6
:101F2000DA018DE068E871E10E94631182E00E94AD
:101F300021101093D50181E004C089E00E94ED09D1
:101F400087E01F910895813021F0823029F084E0EC
:101F500008950E94630F08950E94750F08956F926F
:101F60007F928F929F92AF92BF92CF92DF92EF9229
:101F7000FF920F931F93CF93DF933B014C015A01C4
:101F8000E9018AE00E940A0A882381F1209741F141
:101F90009501442737FD4095542FBE01C536D10524
:101FA00010F064E670E080E090E00E94471E24E6B6
:101FB00030E040E050E00E94571E79018A01C401E0
:101FC000B3010E948B11C7010E947B0A60E070E0A0
:101FD00080E090E00E948B11C5018E199F0904C01A
:101FE000A114B10419F0C5010E947B0ADF91CF91C1
:101FF0001F910F91FF90EF90DF90CF90BF90AF9027
:102000009F908F907F906F900895823029F48091F7
:1020100081008E7F809381008091D501813031F4E1
:102020008091D601813011F4000008958091D5018E
:10203000813021F08091D601813011F45F9857985A
:102040000895982F8091D501882331F48091D6018D
:10205000882311F4579A5F988091D5018823D1F491
:102060009230C1F410928000109281008091810022
:1020700088608093810080918100816080938100DD
:10208000109285001092840081E08093890080E99D
:10209000809388000895EFE6F0E080818D7F808353
:1020A0000895982F81E080934B02913051F0913048
:1020B00018F0923041F403C01092330204C0109221
:1020C00033021092340210924B020895982F81E04F
:1020D00080934B02913071F0913018F0923071F48E
:1020E00005C0709328026093270208C070932802ED
:1020F0006093270270932A026093290210924B0288
:10210000089521E020934B02E7E2F2E0918380837F
:1021100032967183608310924B020895982F81E06C
:1021200080934B02913051F0913018F0923041F48D
:1021300003C06093350204C0609335026093360299
:1021400010924B0208950F931F93CF93DF93EB01EF
:102150008A01813001F1813018F0823061F50DC0C3
:1021600080911F0290912002892B11F080E01AC00B
:1021700010922C0210922B021EC080911F0290918F
:102180002002892B21F080E00E94F01104C01092FF
:102190002C0210922B028091210290912202892B15
:1021A00031F081E0BE01A8010E94F01104C010923C
:1021B0002E0210922D02DF91CF911F910F91089561
:1021C000CF93DF93C0E0D0E08C2F60E00E94EF104F
:1021D0002196C531D105C1F7DF91CF9108958531A1
:1021E00028F4E82FF0E0E451FE4F608308951F9338
:1021F000CF93DF93EC01009799F181E00E940A0AE6
:10220000882351F187E00E94610518EC812F8A959F
:10221000F1F782E06AE00E94B20582E064EB0E947E
:10222000B205812F8A95F1F782E060E00E944805AF
:102230008883812F8A95F1F782E060E00E9448054B
:1022400089831A95F1F782E060E00E9448058A834D
:1022500087E00E94610504C0188219828DE28A839A
:10226000DF91CF911F91089588E00E94FD09882396
:1022700011F082E0089510926C0210926E0210929A
:102280006D021092E5011092E60180E16DE572E1C8
:102290000E9477110E9454110E945D1181E00895FF
:1022A00081E08093E601089584B5826084BD85B5A0
:1022B000846085BD8EE487BD0895EEE6F0E0808100
:1022C000826080830895E82F803268F480518330E3
:1022D00050F0F0E0EE0FFF1FE458FE4F20813181F7
:1022E0007183608302C020E030E0C901089580322C
:1022F00018F020E030E00AC0E82FF0E0EE0FFF1FFA
:10230000E458FE4F2081318171836083C9010895B3
:102310000E94AF110895EF92FF920F931F937B01DC
:102320008C018AE00E940A0A8823A1F08091D601DC
:10233000882381F0D801C701880F991FAA1FBB1FEE
:102340009093E2018093E101E114F104010511058C
:1023500009F45F981F910F91FF90EF90089580917D
:10236000D7019091D801A091D901B091DA012091C3
:10237000DB013091DC014091DD015091DE01280F3D
:10238000391F4A1F5B1F2093D7013093D801409318
:10239000D9015093DA018091D7019091D801A09191
:1023A000D901B091DA018851964FA040B040BCF0FD
:1023B0008BB180588BB98091D7019091D801A091B1
:1023C000D901B091DA018851964FA040B040809376
:1023D000D7019093D801A093D901B093DA01089561
:1023E000EF92FF920F931F93CF93DF93EB0188231C
:1023F00021F0813009F05AC02DC09A0140E050E030
:10240000CA01B9010E94471E20911F02309120028B
:10241000220F331F40E050E00E94571E79018A01CD
:10242000A8019701220F331F441F551FCE01A0E0C2
:10243000B0E082179307A407B50728F0F0922C02AA
:10244000E0922B0233C0D695C795D0932C02C0934F
:102450002B022CC09A0140E050E0CA01B9010E9451
:10246000471E2091210230912202220F331F40E0AB
:1024700050E00E94571E79018A01A8019701220F9E
:10248000331F441F551FCE01A0E0B0E08217930711
:10249000A407B50728F0F0922E02E0922D0206C0A4
:1024A000D695C795D0932E02C0932D02DF91CF9180
:1024B0001F910F91FF90EF9008950E9464120E9467
:1024C000A4120E947D12089588E00E940A0A8823BF
:1024D00011F484E008958091E601882311F483E0EB
:1024E00008958091E501882311F082E008950E940B
:1024F00016158130E1F380E008958091D601813096
:1025000011F58091DF019091E0012091E10130917E
:10251000E201280F391F3093E0012093DF01809101
:10252000DF019091E001885E93406CF08BB18058A0
:102530008BB98091DF019091E001885E9340909388
:10254000E0018093DF01089587E00E940A0A882352
:1025500009F4AAC080911F0290912002892B09F1F1
:10256000809143029091440220911F0230912002F9
:10257000820F931F90934402809343028091430201
:1025800090914402885E9340A4F080914302909120
:102590004402885E9340909344028093430241E05A
:1025A00009C0809117029091180290931C028093A9
:1025B0001B0240E08091210290912202892B09F1B7
:1025C0008091450290914602209121023091220291
:1025D000820F931F9093460280934502809145029B
:1025E00090914602885E9340A4F0809145029091BC
:1025F0004602885E9340909346028093450261E0D4
:1026000009C08091190290911A0290931E02809342
:102610001D0260E0842F0E94551380913F0290912B
:10262000400220911B0230911C02280F391F309369
:10263000400220933F0280913F0290914002885EC9
:10264000934014F440E00BC080913F02909140020F
:10265000885E93409093400280933F0241E08091D6
:1026600041029091420220911D0230911E02280FDA
:10267000391F309342022093410280914102909190
:102680004202885E934014F460E00BC080914102E6
:1026900090914202885E934090934202809341025F
:1026A00061E0842F0E949A1308958823F1F020910D
:1026B00017023091180280911B0290911C02281B76
:1026C000390B1216130634F480911B0290911C02F0
:1026D000019607C0232B49F080911B0290911C02A8
:1026E000019790931C0280931B02662311F12091A5
:1026F000190230911A0280911D0290911E02281B2E
:10270000390B1216130654F480911D0290911E028B
:10271000019690931E0280931D020895232B49F089
:1027200080911D0290911E02019790931E0280934A
:102730001D0208950F931F93182F062F80914B02AF
:10274000882309F0E7C080913302882309F05AC03A
:1027500080911B0290911C02892BE9F48091E70182
:10276000837E8093E70110923C0280914702882388
:1027700009F45DC06091350280E00E94F114E0919F
:102780004902F0914A02309709F451C081E08083F8
:10279000109247024CC080911502813041F4809123
:1027A000270290912802019711F411E002C0112331
:1027B000F1F1E0913A02F0E0E95EFE4F9091E7011D
:1027C000937E8081892B8093E70180913802882352
:1027D00021F480913A028F5F03C080913A028150C8
:1027E00080933A0280913A02837080933A0281E0AA
:1027F00080933C02809115028130C9F480E00E94F0
:102800009D1415C09091E701937E9093E701E091AC
:102810003A02F0E0E95EFE4F8081892B8093E70168
:1028200082E080933C0210921C0210921B02809165
:102830003402882309F059C080911D0290911E0234
:10284000892BE9F48091E7018F718093E701109261
:102850003D0280914802882309F45CC060913602F1
:1028600081E00E94F114E0914902F0914A02309710
:1028700009F450C081E08183109248024BC08091DE
:102880001602813041F48091290290912A02019729
:1028900011F401E002C00023E9F1E0913B02F0E015
:1028A000E55EFE4F9091E7019F718081892B8093B7
:1028B000E70180913902882321F480913B028F5FE8
:1028C00003C080913B02815080933B0280913B0288
:1028D000837080933B0281E080933D0280911602D9
:1028E0008130C1F40E949D1415C09091E7019F7141
:1028F0009093E701E0913B02F0E0E55EFE4F8081BE
:10290000892B8093E70182E080933D0210921E02A2
:1029100010921D0280913E02882331F487EE91E0EF
:10292000612F402F0E94841588B183709091E70138
:10293000892B88B91F910F910895882321F0813048
:1029400009F04EC027C08091270290912802892B60
:1029500049F08091270290912802019790932802D4
:1029600080932702809147028823D1F52091270286
:102970003091280280912B0290912C022817390760
:1029800079F580E060E070E00E942C0881E080939F
:10299000470208958091290290912A02892B49F0DB
:1029A0008091290290912A02019790932A028093A4
:1029B000290280914802882399F4209129023091BC
:1029C0002A0280912D0290912E022817390741F496
:1029D00081E060E070E00E942C0881E08093480272
:1029E00008950F931F93182F062F662349F460E074
:1029F00070E00E942C08812F60E070E00E94661059
:102A000081E080934B02113051F0113018F01230F8
:102A100041F403C00093330204C0009333020093D7
:102A2000340210924B021F910F910895FF920F9361
:102A30001F93CF93DF9380916C02882309F459C0D0
:102A400000916D0210916E02F801C081D1818C81DC
:102A50009D8101979D838C83181619060CF449C03B
:102A6000898180FF05C08E81882311F481E08E83E7
:102A7000898181FF03C0EF81F885099580916C02FF
:102A80008230A8F0F8018281938190936E02809346
:102A90006D0213821282E0910000F09101008481A6
:102AA0009581181619063CF0FF24F39405C0109286
:102AB0006E0210926D02FF2480916C02815080930F
:102AC0006C0280916C02882311F40E948115898127
:102AD00082FF08C08A819B819D838C83C8010E94EC
:102AE000E60A08C0C8010E945F1F89818F7E898322
:102AF00001C0FF248F2DDF91CF911F910F91FF9087
:102B000008951092E6010895FC0180913C02823004
:102B100069F48091EB0191E089278093EB01882390
:102B200009F03EC08081837E80833AC080911B0281
:102B300090911C02C397A4F56623D1F020911B024B
:102B400030911C0280E690E0BC01269FC001279FC7
:102B5000900D369F900D1124880F892F881F990B97
:102B60009093300280932F0281E08093E90118C096
:102B70008091E9018823A1F080912F029091300289
:102B800001979093300280932F0280912F029091B1
:102B90003002892B29F48081837E80831092E901A1
:102BA00080913D02823069F48091EA0191E08927A9
:102BB0008093EA01882309F03EC080818F71808371
:102BC000089580911D0290911E02C397A4F544239D
:102BD000D1F020911D0230911E0280E690E0AC0100
:102BE000249FC001259F900D349F900D1124880FC4
:102BF000892F881F990B909332028093310281E0D4
:102C00008093E80108958091E8018823A1F08091E4
:102C100031029091320201979093320280933102F7
:102C20008091310290913202892B29F480818F7139
:102C300080831092E8010895CF93DF93CDB7DEB77C
:102C400027970FB6F894DEBF0FBECDBF0E94550385
:102C50000E9433030E940F070E944D0485E291E019
:102C60009F938F930E941D210F900F90992493940E
:102C70000F2EF0E95F2EF02D0F2EF8ECDF2EF02D49
:102C80000F2EF8E74F2EF02D392CD4C0A2E4B1E07E
:102C9000BF93AF930E941D210E9433038FE090E009
:102CA0000E947B0A8B810F900F9085FDCFC01F92F1
:102CB0001F921F921F921F921F921F921F921F928C
:102CC000812CA12CB12CC12C0F2EF0E9EF2EFF246A
:102CD000F394F02D08EC10E028EE33E040E062E0E1
:102CE00080E00E9476060FB6F894DEBF0FBECDBF1F
:102CF000ADC00F2EF3E06F2EF02D712C0F2EF6E9E4
:102D00002F2EF02D1F921F921F929F925F921F9263
:102D1000DF921F922F92812CA12CB12CC12C0F2E4F
:102D2000F0E9EF2EFF24F394F02D08EC10E026E9F3
:102D300030E040E062E080E00E94760684E690E0C9
:102D40000E947B0A1F921F921F929F925F921F9276
:102D5000DF921F92B5EABF93832C25EA30E040E072
:102D600062E080E00E94760684E690E00E947B0AA2
:102D700081E0681A71080FB6F894DEBF0FBECDBFB0
:102D800009F0C0CF67C088230CF443C06894662460
:102D900062F8712C1F921F921F929F925F921F9256
:102DA000DF921F92DF92812CA12CB12CC12C0F2E0F
:102DB000F0E9EF2EFF24F394F02D08EC10E028EC5E
:102DC00030E040E062E080E00E94760684E690E039
:102DD0000E947B0A1F921F921F929F925F921F92E6
:102DE000DF921F924F92832C28E730E040E062E0B0
:102DF00080E00E94760684E690E00E947B0AB1E0C3
:102E00006B1A71080FB6F894DEBF0FBECDBF09F084
:102E1000C1CF8B8186FD0EC0A3E6B1E0BF93AF9317
:102E20000E941D2188EC90E00E947B0A0E943303DF
:102E30000F900F90CE0101960E946B04813009F42F
:102E400025CF82E090E00E947B0AF4CF8B8184FF43
:102E500050CF99CF8B8188230CF098CFDACFA3E1A4
:102E6000B0E0E5E3F7E10C94841E6C014B012A010C
:102E7000FC0117821682838181FF43C3AE014F5F3D
:102E80005F4F3A01F6019381F40193FD859193FF21
:102E900081914F01882309F430C3853239F493FDC1
:102EA000859193FF81914F01853239F4B60190E00D
:102EB0000E94E52052012501E5CF10E0F12C20E031
:102EC0002032A0F48B3269F030F4803259F0833232
:102ED00069F420612CC08D3239F0803339F42160DF
:102EE00026C02260246023C0286021C027FD27C09F
:102EF00030ED380F3A3078F426FF06C0FAE01F9F15
:102F0000300D1124132F13C04AE0F49E300D11240C
:102F1000F32E20620CC08E3221F426FDEEC2206416
:102F200006C08C3611F4206802C0883641F4F401E2
:102F300093FD859193FF81914F018111C1CF9BEB4F
:102F4000980F933018F42061805E06C09BE9980FBB
:102F5000933008F071C12F7E26FF16E02F73322EBA
:102F6000853619F42064322E08C0863621F4F22FFB
:102F7000F0683F2E02C01111115037FE07C01C33FC
:102F800050F4EE24E394E10E27E00BC0183038F043
:102F900027E017E005C027E04CE3E42E02C0212F14
:102FA000E12C520144E0A40EB11CF2016081718158
:102FB000828193810E2DA3010E94F71F2C010981AC
:102FC00000FF02C003FF07C031FC08C032FE09C089
:102FD00030E2232E07C02DE2222E04C09BE2292ED0
:102FE00001C0212C802F8C7019F0211068C2A8C25A
:102FF00037FE0FC0E40C04FF04C08A81813309F45A
:10300000EA941E1474F5F8E0FE1578F588E0E82ED1
:103010002CC036FC2AC0812F90E0841595059CF0C9
:103020002CEF42162FEF520674F0432D4068342ED9
:103030000AC0E2E0F0E0EC0FFD1FE10FF11D80811E
:10304000803319F411501111F4CF37FE0EC0EE2465
:10305000E394E10E812F90E0481659062CF41419E0
:1030600004C0EE24E39401C010E037FE06C014143F
:10307000150434F4C201019605C085E090E002C059
:1030800081E090E021100196112331F0212F30E0F2
:103090002F5F3F4F820F931F2F2D30E08217930732
:1030A00014F4F81A01C0F12C832D897049F4FF2023
:1030B00039F0B60180E290E00E94E520FA94F7CF63
:1030C000222029F0B601822D90E00E94E52033FCF9
:1030D00009C0FF2039F0B60180E390E00E94E520AE
:1030E000FA94F7CF37FE5AC0942D852D57FE02C0B3
:1030F00090E080E0292E382E20E030E0A2014E1929
:1031000051095D874C87A201421953095F874E8799
:10311000612F70E044275527461B570B598B488B6E
:103120005FEF2516350649F4B6018EE290E02A8B52
:103130003B8B0E94E5203B892A89421453046CF0A2
:103140004C855D854215530544F4EE85FF85E20FFD
:10315000F31FE60DF71D818101C080E351E0251AC0
:1031600031082F5F3F4F48895989241635064CF0A6
:10317000B60190E02A8B3B8B0E94E5202A893B898F
:10318000CFCF2414350439F49A81963318F495334B
:1031900011F404FF81E3B60190E04BC08A818133D2
:1031A00009F00F7EB60190E00E94E520111105C0E4
:1031B00034FC18C085E690E017C0B6018EE290E0BE
:1031C0000E94E52082E0EE24E394E80EF301E80F8C
:1031D000F11D8081B60190E00E94E52011508E2DF6
:1031E00091F7E6CF85E490E0B6010E94E52057FC18
:1031F00005C04114510439F404FF05C051944194B1
:1032000051088DE201C08BE2B60190E00E94E520FA
:1032100080E39AE0491651042CF08F5F5AE0451A7A
:103220005108F7CFB60190E00E94E520B601C20137
:10323000C0960E94E52057C1833631F0833779F07C
:10324000833509F058C021C05201E2E0AE0EB11C36
:10325000F2018081898301E010E0230114C0520152
:10326000F2E0AF0EB11CF2014080518026FF03C096
:10327000612F70E002C06FEF7FEFC2012A8B0E94C6
:10328000DA208C012A892F7715C05201F2E0AF0EA7
:10329000B11CF2014080518026FF03C0612F70E015
:1032A00002C06FEF7FEFC2012A8B0E94CF208C01FA
:1032B0002A892068322E23FD1AC08F2D90E008172E
:1032C0001907A8F4B60180E290E00E94E520FA9484
:1032D000F4CFF20137FC859137FE81912F01B601C1
:1032E00090E00E94E520F110FA94015011090115B7
:1032F000110579F7F8C0843611F0893659F5520175
:1033000027FF09C0F4E0AF0EB11CF20160817181AA
:10331000828193810AC0F2E0AF0EB11CF20160819C
:103320007181072E000C880B990B2F76322E97FF98
:1033300009C090958095709561957F4F8F4F9F4FF5
:103340002068322E2AE030E0A3010E943321E82ECB
:10335000E6183FC0022F853721F40F7E2AE030E0C7
:103360001DC0097F8F3691F018F4883559F0C5C01B
:10337000803719F0883711F0C0C0006104FF09C020
:10338000046007C024FF08C0066006C028E030E0E3
:1033900005C020E130E002C020E132E0520107FF29
:1033A00009C0F4E0AF0EB11CF2016081718182812D
:1033B000938108C0F2E0AF0EB11CF201608171810F
:1033C00080E090E0A3010E943321E82EE6180F77F9
:1033D000302E36FE0BC0332D3E7FE11650F434FE06
:1033E0000AC032FC08C0332D3E7E05C00E2D332DA1
:1033F00003C00E2D01C0012F34FF0CC0FE01EE0DE5
:10340000F11D8081803311F4397E08C032FF05C080
:103410000E5F04C0832F867809F00F5F33FD13C061
:1034200030FF06C01E2D0F1518F41F0D101B0F2D99
:103430000F1568F4B60180E290E03B8B0E94E52016
:103440000F5F3B89F5CF0F1510F4F01A01C0F12C76
:1034500034FF12C0B60180E390E03B8B0E94E52070
:103460003B8932FF17C031FD03C088E790E002C0FE
:1034700088E590E0B6010CC0832F867859F031FFC3
:1034800002C08BE201C080E237FD8DE2B60190E020
:103490000E94E520E11638F4B60180E390E00E9436
:1034A000E5201150F7CFEA94F301EE0DF11D808174
:1034B000B60190E00E94E520E110F5CF14C0F4E0E1
:1034C000FF1558F584E0F81A33FE1EC0211026C0FF
:1034D00003FF2AC00EEF10E0F32DF0713F2EF8012C
:1034E0008491811124C0FF2009F4E5CCB60180E26B
:1034F00090E00E94E520FA94F6CFF601868197814C
:1035000026C08FEF9FEF23C0B60180E290E00E94BB
:10351000E520FA94F110F8CFD9CFF12CB601822D25
:1035200090E00E94E520D4CF02E011E0D5CF311029
:103530008052B60190E00E94E5200F5F1F4FCFCF71
:1035400023E02F1510F483E0BECFF12CC1CF63969A
:10355000E2E10C94A01E0E94BF1A0C94711B0E9401
:103560006A1B58F00E94631B40F029F45F3F29F06A
:103570000C945A1B51110C94A51B0C94601B0E94B7
:10358000821B68F39923B1F3552391F3951B550BD7
:10359000BB27AA2762177307840738F09F5F5F4F26
:1035A000220F331F441FAA1FA9F335D00E2E3AF065
:1035B000E0E832D091505040E695001CCAF72BD07D
:1035C000FE2F29D0660F771F881FBB1F26173707CE
:1035D0004807AB07B0E809F0BB0B802DBF01FF2700
:1035E00093585F4F3AF09E3F510578F00C945A1B68
:1035F0000C94A51B5F3FE4F3983ED4F38695779532
:103600006795B795F7959F5FC9F7880F911D9695B8
:10361000879597F90895E1E0660F771F881FBB1F14
:10362000621773078407BA0720F0621B730B840BC1
:10363000BA0BEE1F88F7E0950895E89409C097FB50
:103640003EF490958095709561957F4F8F4F9F4F79
:103650009923A9F0F92F96E9BB279395F6958795BD
:1036600077956795B795F111F8CFFAF4BB0F11F480
:1036700060FF1BC06F5F7F4F8F4F9F4F16C0882327
:1036800011F096E911C0772321F09EE8872F762F5D
:1036900005C0662371F096E8862F70E060E02AF09E
:1036A0009A95660F771F881FDAF7880F969587958A
:1036B00097F9089597F99F6780E870E060E00895B2
:1036C0009FEF80EC089500240A941616170618063A
:1036D0000906089500240A94121613061406050616
:1036E0000895092E0394000C11F4882352F0BB0FA7
:1036F00040F4BF2B11F460FF04C06F5F7F4F8F4F0A
:103700009F4F089557FD9058440F551F59F05F3F44
:1037100071F04795880F97FB991F61F09F3F79F0F3
:1037200087950895121613061406551FF2CF469575
:10373000F1DF08C0161617061806991FF1CF8695F7
:103740007105610508940895E894BB2766277727DB
:10375000CB0197F908950E948A1BA8F19E57B0F1FA
:10376000985160F039F1983070F5092E9927660F5D
:10377000771F881F991F0A94D1F71CC0BB27993F58
:103780004CF4B111B1E0B62B672F782F8827985FE2
:10379000B1F708C0869577956795B79508F4B1603D
:1037A0009395C1F7BB0F30F411F460FF03C06F5F56
:1037B0007F4F8F4F3EF490958095709561957F4F28
:1037C0008F4F9F4F089568940C94A51B0C94A41BD5
:1037D0000E94FB1B0C94711B0E94631B38F00E941B
:1037E0006A1B20F0952311F00C945A1B0C94601B5B
:1037F00011240C94A51B0E94821B70F3959FC1F3AA
:10380000950F50E0551F629FF001729FBB27F00D8E
:10381000B11D639FAA27F00DB11DAA1F649F6627E3
:10382000B00DA11D661F829F2227B00DA11D621F32
:10383000739FB00DA11D621F839FA00D611D221FEC
:10384000749F3327A00D611D231F849F600D211DD0
:10385000822F762F6A2F11249F5750409AF0F1F053
:1038600088234AF0EE0FFF1FBB1F661F771F881FBC
:1038700091505040A9F79E3F510580F00C945A1B7F
:103880000C94A51B5F3FE4F3983ED4F3869577959F
:103890006795B795F795E7959F5FC1F7FE2B880F62
:1038A000911D9695879597F90895FA01EE0FFF1FE0
:1038B000309621053105A1F16115710561F480385B
:1038C000BFE39B0749F168949038810561F0803827
:1038D000BFEF9B0741F099234AF5FF3FE105310512
:1038E000210519F1E8940894E795D901AA2329F450
:1038F000AB2FBE2FF85FD0F310C0FF5F70F4A6951A
:10390000E0F7F73950F019F0FF3A38F49F779F93BA
:103910000DD00F9007FC9058089546F00C94601B52
:1039200060E070E080E89FE308954FE79F775F9342
:103930004F933F932F930E94501D2F913F914F9192
:103940005F910E94E81B0C94AD1C29F416F00C94B6
:103950005A1B0C94A41B0C94601B0E948A1BA8F396
:103960009638A0F707F80F92E8942BE33AEA48EB71
:103970005FE70E94FE1B0F920F920F924DB75EB74A
:103980000F920E94981DECE7F0E00E94DF1C4F911F
:103990005F91EF91FF91E595EE1FFF1F49F0FE57F4
:1039A000E0684427EE0F441FFA95E1F74195550B67
:1039B0000E94121D0F9007FE0C94061D0895DF93C0
:1039C000CF931F930F93FF92EF92DF927B018C01B5
:1039D000689406C0DA2EEF010E94FB1BFE01E894FA
:1039E000A5912591359145915591A6F3EF010E943E
:1039F000E41DFE019701A801DA9469F7DF90EF90CA
:103A0000FF900F911F91CF91DF9108959B01AC0121
:103A100060E070E080E89FE30C94AB1A0C945A1BB2
:103A20000C94391E0E948A1BD8F39923C9F3940F72
:103A3000511DA3F39150504094F059F0882332F077
:103A4000660F771F881F91505040C1F79E3F510568
:103A50002CF7880F911D9695879597F908955F3FEC
:103A6000ACF0983E9CF0BB27869577956795B79507
:103A700008F4B1609395C1F7BB0F58F711F460FFDC
:103A8000E8CF6F5F7F4F8F4F9F4FE3CF0C94A51B05
:103A900016F00C94391E0C94601B68940C945A1BFD
:103AA0000E948A1BA8F39923C1F3AEF3DF93CF934F
:103AB0001F930F93FF92C92FDD2788232AF02197A8
:103AC000660F771F881FDAF720E030E040E85FEBF1
:103AD0009FE3883920F0803E38F021968F770E944E
:103AE000CD1DE4EAF0E004C00E94CD1DE1EDF0E060
:103AF0000E94DF1C8B01BE01EC01FB2E6F57710988
:103B00007595771F880B990B0E941F1B28E132E7E0
:103B100041E35FE30E94FB1BAF2D9801AE01FF90D4
:103B20000F911F91CF91DF910E94E41D0C94711BA6
:103B3000FA01DC01AA0FBB1F9B01AC01BF5728F49F
:103B4000222733274427507820C0B75190F4AB2F59
:103B50000024469537952795011CA395D2F30020A4
:103B600071F0220F331F441FB395DAF30ED00C947B
:103B7000CC1D61307105A0E88A07B94630F49B017D
:103B8000AC016627772788279078309621F020832C
:103B900031834283538308955058BB27AA270E943C
:103BA000E41D0C94711B0E94631B38F00E946A1B79
:103BB00020F039F49F3F19F426F40C94601B0EF4A6
:103BC000E095E7FB0C945A1BE92F0E94821B58F3E7
:103BD000BA17620773078407950720F079F4A6F5F2
:103BE0000C94A41B0EF4E0950B2EBA2FA02D0B0104
:103BF000B90190010C01CA01A0011124FF27591B32
:103C000099F0593F50F4503E68F11A16F040A22F37
:103C1000232F342F4427585FF3CF469537952795A8
:103C2000A795F0405395C9F77EF41F16BA0B620BA7
:103C3000730B840BBAF09150A1F0FF0FBB1F661FEE
:103C4000771F881FC2F70EC0BA0F621F731F841F31
:103C500048F4879577956795B795F7959E3F08F057
:103C6000B0CF9395880F08F09927EE0F9795879519
:103C700008959F3F31F0915020F48795779567958F
:103C8000B795880F911D9695879597F90895DB0153
:103C90008F939F930E94791EBF91AF91A29F800D39
:103CA000911DA39F900DB29F900D11240895A1E244
:103CB0001A2EAA1BBB1BFD010DC0AA1FBB1FEE1FA6
:103CC000FF1FA217B307E407F50720F0A21BB30BF1
:103CD000E40BF50B661F771F881F991F1A9469F76D
:103CE00060957095809590959B01AC01BD01CF01C9
:103CF00008950E94BB1EA59F900DB49F900DA49F98
:103D0000800D911D112408952F923F924F925F9242
:103D10006F927F928F929F92AF92BF92CF92DF92DB
:103D2000EF92FF920F931F93CF93DF93CDB7DEB740
:103D3000CA1BDB0B0FB6F894DEBF0FBECDBF0994D4
:103D40002A88398848885F846E847D848C849B842B
:103D5000AA84B984C884DF80EE80FD800C811B8139
:103D6000AA81B981CE0FD11D0FB6F894DEBF0FBE68
:103D7000CDBFED010895A29FB001B39FC001A39FE5
:103D8000700D811D1124911DB29F700D811D112494
:103D9000911D0895CF93DF938230910510F482E056
:103DA00090E0E0917102F091720220E030E0C0E01A
:103DB000D0E0309711F14081518148175907C0F088
:103DC0004817590761F482819381209719F09B83EA
:103DD0008A832BC0909372028093710226C02115B2
:103DE000310519F04217530718F49A01BE01DF019B
:103DF000EF010280F381E02DDCCF2115310509F1BF
:103E0000281B390B2430310590F412968D919C912A
:103E100013976115710521F0FB019383828304C020
:103E20009093720280937102FD01329644C0FD01AD
:103E3000E20FF31F81939193225031092D933C930C
:103E40003AC020916F0230917002232B41F42091EF
:103E50002101309122013093700220936F02209152
:103E60001F01309120012115310541F42DB73EB7D6
:103E70004091230150912401241B350BE0916F02E6
:103E8000F0917002E217F307A0F42E1B3F0B2817E6
:103E9000390778F0AC014E5F5F4F2417350748F0C3
:103EA0004E0F5F1F5093700240936F028193919366
:103EB00002C0E0E0F0E0CF01DF91CF9108950F93D1
:103EC0001F93CF93DF93009709F48CC0FC013297C6
:103ED0001382128200917102109172020115110574
:103EE00081F420813181820F931F20916F023091E4
:103EF00070022817390779F5F0937002E0936F028A
:103F000071C0D80140E050E0AE17BF0750F41296E0
:103F10002D913C911397AD012115310509F1D9017E
:103F2000F3CF9D01DA013383228360817181860F93
:103F3000971F8217930769F4EC0128813981260FB6
:103F4000371F2E5F3F4F318320838A819B8193836C
:103F50008283452B29F4F0937202E093710242C0F0
:103F60001396FC93EE931297ED01499159919E019E
:103F7000240F351FE217F30771F480819181840FBC
:103F8000951F029611969C938E938281938113962E
:103F90009C938E931297E0E0F0E0D80112968D91F9
:103FA0009C911397009719F0F8018C01F6CF8D9131
:103FB0009C9198012E5F3F4F820F931F20916F02BB
:103FC000309170022817390769F4309729F410925C
:103FD00072021092710202C0138212821093700258
:103FE00000936F02DF91CF911F910F9108952830B8
:103FF00008F027E03327DA01990F311D87FD916022
:1040000000966105710539F432602E5F3D9330E30F
:104010002A95E1F708959F3F30F0803871056105DA
:1040200009F03C5F3C5F3D93913008F08068911D42
:10403000DF93CF931F930F93FF92EF92192F987FE7
:104040009695E92F96959695E90FFF27E05AFE4F32
:1040500099273327EE24FF24A701E7010590089450
:10406000079428F4360FE71EF81E491F511D660FEE
:10407000771F881F991F0694A1F70590079428F4CD
:10408000E70EF81E491F561FC11D770F881F991F85
:10409000661F0694A1F70590079428F4F80E491FAF
:1040A000561FC71FD11D880F991F661F771F0694C3
:1040B000A1F70590079420F4490F561FC71FD81F7A
:1040C000990F661F771F881F0694A9F78491109592
:1040D000177041F0D695C79557954795F794E79493
:1040E0001A95C1F7E6E0F1E06894159015913591C5
:1040F0006591959105907FE27395E118F10A430B64
:10410000560BC90BD009C0F7E10CF11E431F561F17
:10411000C91FD01D7EF4703311F48A95E6CFE89460
:10412000015030F0080F0AF40027021708F4202F7E
:104130002395022F7A3328F079E37D932A95E9F7C6
:1041400010C07D932A9589F60694979567953795C3
:1041500017951794E118F10A430B560BC90BD009B8
:1041600098F023957E9173957A3308F070E37C93F1
:104170002013B8F77E9170617D9330F0839571E3E1
:104180007D9370E32A95E1F71124EF90FF900F9152
:104190001F91CF91DF91992787FD90950895FC019C
:1041A0000590615070400110D8F7809590958E0F62
:1041B0009F1F0895FC016150704001900110D8F7D5
:1041C000809590958E0F9F1F08950F931F93CF9307
:1041D000DF93FB01238121FD03C08FEF9FEF28C0F8
:1041E00022FF16C04681578124813581421753072B
:1041F00044F4A081B1819D012F5F3F4F3183208323
:104200008C93268137812F5F3F4F3783268310C0E1
:10421000EB01092F182F0084F185E02D0995892BDA
:10422000E1F68E819F8101969F838E83812F902F4F
:10423000DF91CF911F910F910895A0E0B0E0E3E2EC
:10424000F1E20C94941EAE014B5F5F4FFA01619155
:104250007191AF0180917502909176020E942F17A3
:10426000E2E00C94B01EFA01AA27283051F1203167
:1042700081F1E8946F936E7F6E5F7F4F8F4F9F4FFA
:10428000AF4FB1E03ED0B4E03CD0670F781F891F3C
:104290009A1FA11D680F791F8A1F911DA11D6A0F0A
:1042A000711D811D911DA11D20D009F468943F91BD
:1042B0002AE0269F11243019305D3193DEF6CF01BC
:1042C0000895462F4770405D4193B3E00FD0C9F782
:1042D000F6CF462F4F70405D4A3318F0495D31FDEF
:1042E0004052419302D0A9F7EACFB4E0A695979542
:1042F000879577956795BA95C9F700976105710518
:1043000008959B01AC010A2E069457954795379561
:104310002795BA95C9F7620F731F841F951FA01DBB
:064320000895F894FFCFA0
:104326000000000200000000AE0D00000000014287
:1043360000000000000000180C041060C08020007F
:104346000079022000496620796F75207365652023
:104356007468697320707265737320416E616C6F47
:1043660067006772656174212070726573732058E7
:104376002C5351522C545249206F72204369726358
:104386006C6500574F572120596F75205072657321
:0843960073656420582100004A
:00000001FF
